:020000040800F2
:1000000090080020A1010008DD140008D3080008B2
:10001000B712000823080008811E00080000000035
:100020000000000000000000000000003D17000874
:1000300027080008000000000516000855180008F1
:10004000BB010008BB010008BB010008BB010008A0
:10005000BB010008BB010008BB010008BB01000890
:10006000BB010008BB010008BB010008BB01000880
:10007000BB010008BB010008BB010008BB01000870
:10008000BB010008BB010008BB010008BB01000860
:10009000BB010008BB010008BB010008BB01000850
:1000A000BB010008BB010008BB010008BB01000840
:1000B000BB010008BB0100088D190008BB01000846
:1000C000BB010008BB010008BB010008BB01000820
:1000D000BB010008711D0008BB010008851D000858
:1000E000BB010008BB010008BB010008BB01000800
:1000F000BB010008BB010008BB010008BB010008F0
:10010000BB010008BB010008BB010008BB010008DF
:10011000BB010008BB010008C5190008791A0008D6
:10012000BB010008BB010008BB010008BB010008BF
:10013000BB010008BB010008BB010008BB010008AF
:10014000BB010008BB010008BB010008BB0100089F
:10015000BB010008BB010008BB010008BB0100088F
:10016000BB010008BB010008BB010008BB0100087F
:10017000BB010008BB010008BB010008BB0100086F
:10018000BB010008BB010008DFF810D000F0FCFA4A
:100190000048004721300008AFF30080900800209D
:1001A0000648804706480047FEE7FEE7FEE7FEE711
:1001B000FEE7FEE7FEE7FEE7FEE7FEE7251900089B
:1001C000890100082DE9FE4F804681EA0300C00F37
:1001D0000C46009021F0004123F00045B8EB0200EE
:1001E000A94105D24046214690461C460B46024690
:1001F00023F00040104347D0270DC7F30A00C3F394
:100200000A510290401A019040286BDAC3F31300A0
:1002100040F4801B0098924620B10023D2EB030AE1
:1002200063EB0B0B01985946C0F14002504600F0B9
:10023000C5F906460D4650465946019A00F0CDF9DB
:1002400010EB08006141002487EA115284EAE77349
:100250001A4340D0009A62B3019A012A4FEA07522A
:1002600015DC001B61EB02014FF0004202EA07526D
:10027000CDE90042001C41F5801132462B4600F0CA
:1002800004FA03B0BDE8F08F40462146F9E7001BB1
:1002900061EB0201001C41F5801300185B4120183E
:1002A000A2F5001747EB030140EAD570B6196D417E
:1002B00011E06D084FEA360645EAC0754FEA07526D
:1002C000001B61EB0201001C41F5801149084FEA57
:1002D00030000019514132462B4603B0BDE8F04FC3
:1002E00000F0C4B90098012240000023D0EB0202C4
:1002F00063EBE073009821464FEAE074B8EB00002E
:1003000061EB0401E9E783F000435BE781F0004122
:1003100058E72DE9FE4F81EA030404F0004421F080
:10032000004100944FF0000B23F0004350EA010419
:100330005ED052EA03045BD0C3F30A54C1F30A55FA
:100340002C44A4F2F3340194A0FB0254C1F3130132
:1003500041F48011C3F3130343F4801301FB0244FF
:1003600000FB034E840A970A44EA815447EA835704
:10037000A4FB076802958D0A05FB07854FEA932CBD
:1003800004FB0C542705029D4FEA065847EA16372E
:10039000B5EB08056EEB070C870E920E47EA811746
:1003A00042EA8312A7FB0201B6EB0B0164EB0004E7
:1003B0002B0D43EA0C335E1844EB1C50DA465146D1
:1003C000E7FB0201C5F313044FEA0B3343EA14536E
:1003D0004FEA0432019C43EA0603A4F10C040294A0
:1003E000009CCDE900B400F050F903B0BDE8F08FF7
:1003F00000200146F9E72DE9F04D81EA030404F0FD
:10040000004B21F0004514464FF0000A23F0004154
:1004100050EA050220D054EA01021DD0C5F30A5764
:100420000246C5F31303C1F31300C1F30A5640F4A7
:10043000801543F48013A7EB0608101BD64608F27C
:10044000FD3873EB050002D308F1010801E09218B2
:100450005B41B8F1000F03DA00200146BDE8F08DE2
:1004600000204FF48011064684460EE0171B73EB04
:10047000050705D3121B63EB050306434CEA010C89
:1004800049084FEA300092185B4150EA0107EDD16C
:1004900052EA030012D082EA040083EA050108430D
:1004A00005D0101BAB4106D20122002306E000223A
:1004B0004FF0004302E06FF0010253101AEB060008
:1004C0004CEB085110EB0A0041EB0B01BDE8F04D7D
:1004D00000F0CCB80EB5C10F80EAE0700844CA073E
:1004E000002140F233438DE80E000A460B4600F02F
:1004F000CCF803B000BD01F0004330B421F000415E
:1005000050EA010206D00A0DA2F56072C1F3130190
:10051000002A02DC30BC00207047440F44EAC104CA
:10052000C100E01830BC00EBC25000F068B830B534
:100530000B46014600202022012409E021FA02F5A1
:100540009D4205D303FA02F5491B04FA02F528443B
:10055000151EA2F10102F1DC30BD2DE9F05F054668
:10056000002092469B4688460646814640241BE072
:10057000284641464746224600F018F953465A4657
:10058000C01A914110D311461846224600F016F8C1
:100590002D1A67EB01084F4622460120002100F08A
:1005A0000DF817EB00094E41201EA4F10104DFDC19
:1005B000484631462A464346BDE8F09F202A04DBE0
:1005C000203A00FA02F1002070479140C2F1200366
:1005D00020FA03F3194390407047202A06DBCB171B
:1005E000203A41FA02F043EAE07306E041FA02F3EE
:1005F000D040C2F1200291400843194670470029BB
:10060000A8BF7047401C490008BF20F00100704798
:1006100010B4B0FA80FC00FA0CF050EA010404BFF8
:1006200010BC704749B1CCF1200421FA04F411FA4E
:100630000CF118BF012121430843A3EB0C01CB1D92
:100640004FEA00614FEA102042BF002010BC704703
:1006500000EBC35010440029A4BF10BC7047401CDD
:10066000490008BF20F0010010BC704710B5141EEF
:1006700073F1000408DA401C41F1000192185B415B
:100680001A4301D120F0010010BD2DE9F04D924632
:100690009B4611B1B1FA81F202E0B0FA80F2203249
:1006A0009046FFF78BFF04460F4640EA0A0041EAF6
:1006B0000B0153465A46084313D0114653EA010032
:1006C00019D0C8F14002504600F070F805460E46B9
:1006D000504659464246FFF771FF084305D00120B6
:1006E00004E020463946BDE8F08D0020054346EA87
:1006F000E0762C4337430A986305E40AA0EB080030
:100700000022FD0A44EA47540A3002D5002001467F
:10071000E9E7010510196941DDE90845001969415A
:10072000BDE8F04DA2E7C1F30A52C1F3130140F254
:10073000FF3341F480119A4202DA002001467047EB
:1007400040F233439A42A2F2334202DC524200F0BA
:100750002DB8FFF733BF000030B5041E71F100045F
:1007600004DB4FF00044404264EB0101141E73F1BE
:10077000000405DB1C464FF00043524263EB0403C8
:10078000994208BF904230BD064C074D06E0E06834
:1007900040F0010394E8070098471034AC42F6D3C8
:1007A000FFF7F6FCE464000804650008202A04DB77
:1007B000203A21FA02F00021704721FA02F3D040DA
:1007C000C2F12002914008431946704770B58C1859
:1007D00010F8015B15F0070301D110F8013B2A1155
:1007E00006D110F8012B03E010F8016B01F8016B42
:1007F0005B1EF9D12B0705D40023521E0DD401F83E
:10080000013BFAE710F8013BCB1A921C03E013F806
:10081000015B01F8015B521EF9D5A142D8D300203B
:1008200070BD00BFFEE77047F0B50A460021002307
:10083000002400BF3DE0012505FA01F3156805EA33
:1008400003049C4234D105684F000326BE40B543E3
:10085000056015794E00B540066835430560157989
:10086000012D02D01579022D16D185684F0003267F
:10087000BE40B543856055794E00B5408668354326
:100880008560456801268E40B54345604568967988
:100890008E40B6B235434560C5684F000326BE4062
:1008A000B543C560D5794E00B540C6683543C560CF
:1008B000491C1029BFD3F0BD0246002013690B402C
:1008C0000BB1012000E00020704741837047018395
:1008D000704700BFFEE7000010B500200F49086018
:1008E0000F48006820F440200D4908600846006861
:1008F00040F48020086000200A49C1F8A4020220C8
:1009000001F0CCFF012005490860022001F0C6FF7C
:1009100000200449C1F8A00210BD0000A08240429E
:10092000000402400080404210B500200F490860DA
:100930000F48006820F440200D4908600846006810
:1009400040F48020086001200A49C1F8A402022076
:1009500001F0A4FF012005490860022001F09EFF7C
:1009600000200449C1F8A00210BD0000A08240424E
:10097000000402400080404270B50546002416483D
:10098000006820F4402014490860084600680860A8
:10099000002616E0002011490860022001F07EFFC9
:1009A00001200F49C1F8A0026006040E0B487C38F4
:1009B000006808B1601CC4B2012001F06FFF701C18
:1009C000C6B2082EE6DB15B9FFF7AEFF01E0FFF770
:1009D00083FF204670BD000000040240A082404218
:1009E0000080404270B504461548006820F440205D
:1009F000134908600846006840F480200860002021
:100A000010490860002517E0E0090E49091D08603B
:100A10006006040E022001F041FF01200A49C1F8DE
:100A2000A002022001F03AFF0020064908600220DF
:100A300001F034FF681CC5B2082DE5DB70BD000075
:100A400000040240A08240420080404210B50F489E
:100A5000006820F440200D4908600846006840F412
:100A60008020086001200A4908600A49C1F8A002F4
:100A7000042001F013FF002005490860042001F064
:100A80000DFF00200349C1F8A00210BD0004024080
:100A9000A48240420080404210B50F48006820F414
:100AA00040200D4908600846006840F48020086036
:100AB00000200A4908600A49C1F8A402042001F094
:100AC000EDFE0120054908600549C1F8A402042093
:100AD00001F0E4FE10BD000000040240A08240428C
:100AE0000080404210B500241348006820F44020E4
:100AF0001149086008460068086001200F49086035
:100B000001F0CCFE01200E49C1F8A00201F0C6FEA2
:100B100007E0601CC4B2FA2C03DDFFF7BDFF012023
:100B200010BD0648803800680028F2D10349091F2B
:100B3000086000BFF4E7000000040240A4824042C5
:100B4000008040421CB50121084600F05DFD0020F8
:100B50008DF8040002208DF8050001208DF80700B3
:100B6000002409E0064850F8240000906946054832
:100B7000FFF75AFE601CC4B2022CF3DB1CBD000060
:100B80007C010020000002402DE9F04104460D46A2
:100B900016461F462A2000F077FAA11C88B200F002
:100BA00064FAB11C88B200F060FA2B2000F06CFAF5
:100BB000E91C88B200F059FAF91C88B200F055FA25
:100BC0002C2000F061FABDE8F08108B54FF6FF7007
:100BD00080231A4600210090084600F00FF808BD57
:100BE00070B504460D4616462B4622462946204639
:100BF000FFF7CAFF304600F038FA70BD2DE9F04724
:100C000006460F4614461D46DDF820A0681E83B236
:100C1000601E82B239463046FFF7B6FFB8460EE096
:100C2000B14606E0504600F020FA09F101001FFA33
:100C300080F9A145F6DB08F101001FFA80F8A8450C
:100C4000EEDBBDE8F08700001CB50121022000F0BA
:100C5000DBFC4FF47C70009001208DF80400002034
:100C60008DF8060002208DF8050069460448FFF75C
:100C7000DBFD4FF47C710248FFF729FE1CBD00002C
:100C80000004024010B5FFF7DFFF40217B48FFF76B
:100C90001CFE642001F0E6FD40217848FFF717FEB6
:100CA000642001F0DFFD4FF400717448FFF70FFE80
:100CB000642001F0D7FD112000F0E6F9782001F062
:100CC000D1FDB12000F0E0F9022000F0D7F9352085
:100CD00000F0D4F9362000F0D1F9B22000F0D4F9B8
:100CE000022000F0CBF9352000F0C8F9362000F0E2
:100CF000C5F9B32000F0C8F9022000F0BFF9352093
:100D000000F0BCF9362000F0B9F9022000F0B6F985
:100D1000352000F0B3F9362000F0B0F9B42000F02F
:100D2000B3F9032000F0AAF9C02000F0ADF9A22029
:100D300000F0A4F9022000F0A1F9842000F09EF94F
:100D4000C12000F0A1F9C52000F098F9C22000F000
:100D50009BF90D2000F092F9002000F08FF9C320DC
:100D600000F092F98D2000F089F92A2000F086F930
:100D7000C42000F089F98D2000F080F9EE2000F009
:100D80007DF9C52000F080F90A2000F077F93620BF
:100D900000F07AF9C82000F071F9E02000F074F951
:100DA000122000F06BF91C2000F068F9102000F010
:100DB00065F9182000F062F9332000F05FF92C206B
:100DC00000F05CF9252000F059F9282000F056F9D0
:100DD000282000F053F9272000F050F92F2000F0D0
:100DE0004DF93C2000F04AF9002000F047F90320BB
:100DF00000F044F9032000F041F9102000F03EF922
:100E0000E12000F041F9122000F038F91C2000F038
:100E100035F9102000F032F9182000F02FF92D20BC
:100E200000F02CF9282000F029F9232000F026F901
:100E3000282000F023F9282000F020F9262000F0D7
:100E40001DF92F2000F01AF93B2000F017F90020BF
:100E500000F014F9032000F011F9032000F00EF95E
:100E6000102000F00BF93A2000F00EF9052000F0F8
:100E700005F9292000F008F910BD00000004024027
:100E80002DE9FF4F83B005468A461746119CAB46B5
:100E9000204604EBD071C1F347063046F11706EB4C
:100EA0005171C910614389B20191A7F12000C7B205
:100EB0000AEB0400401E83B2A819401E82B25146BC
:100EC0002846FFF761FE4FF000094AE0102C06D1DA
:100ED000264800EB071010F8090002900BE0202CC8
:100EE00006D1234800EB871010F80900029002E0B9
:100EF00007B0BDE8F08F4FF000082AE0129868B9FB
:100F0000012000FA08F00299084018B1069800F094
:100F1000ACF81AE0109800F0A8F816E0012000FAEA
:100F200008F00299084020B151462846069AFFF77A
:100F300057FE681C85B2A5EB0B00B04205D15D469B
:100F40000AF101001FFA80FA06E008F1010000F042
:100F5000FF08B8F1080FD1DB00BF09F101001FFA4B
:100F600080F901988145B1DB00BFC1E798410008D5
:100F7000884700082DE9FF4F2DED020B2DED028B68
:100F800083B00746B0EE408A1446DDE91486304649
:100F900006EBD071C1F3470A9FED220A28EE000A42
:100FA000BCEEC00A10EE100A1FFA80FB002530E0EC
:100FB000601B401EC1B20A2002F060F8BBFBF0F0DB
:100FC0000A21B0FBF1F201FB1209A01EA84210D1C8
:100FD0000020A11E01FB0A71CDE90086029088B2B3
:100FE0002E220A9B0899FFF74BFF681CC5B2601CB4
:100FF000C4B2002009F13001CAB205FB0A71CDE983
:101000000086029088B20A9B0899FFF739FF681C96
:10101000C5B2A542CCDB03B0BDEC028B06B0BDE887
:10102000F08F00000000C8422DE9FE4F06460F4633
:1010300014469846DDE90D5ADDF8309010E0CDE910
:10104000015ACDF800902278434639463046FFF7E2
:1010500017FF284605EBD07106EB61018EB2641CC8
:1010600020780028EBD1BDE8FE8F10B50446201291
:1010700000F01AF8E0B200F017F810BD10B5044601
:10108000204600F011F810BD10B504468021054837
:10109000FFF71BFC204600F007F880210148FFF70E
:1010A00016FC10BD0004024070B504464FF4807178
:1010B0001248FFF70AFC002517E010210F48FFF740
:1010C00004FC04F0800020B120210C48FFF7FFFB56
:1010D00003E020210948FFF7F8FB10210748FFF73C
:1010E000F6FB6006040E681CC5B2082DE5DB4FF464
:1010F00080710248FFF7EBFB70BD00000004024066
:101100001CB50121042000F07FFA01208DF80400B5
:1011100000208DF8060001208DF8070000208DF8D2
:1011200005004FF40050009069460448FFF77CFB2F
:101130004FF400510148FFF7C8FB1CBD00080240F6
:1011400010B52DED088B82B001AB02224121682041
:1011500000F055F89DF805009DF8041040EA0120C4
:1011600004B22046FFF7B6F941EC1B0B9FED100BC4
:1011700053EC102BFFF73FF941EC1A0B9FED0E0BD0
:1011800053EC102BFFF71EF841EC190BFFF7B3F9E6
:1011900008EE100A9FED0A0A28EE000ABDEEC00A0A
:1011A00010EE100A00B202B0BDEC088B10BD0000BA
:1011B0000000000000407540A4703D0AD743424043
:1011C0000000C84270B50446FFF740FCD020FFF78E
:1011D00009FCFFF787FC2046FFF704FCFFF782FCC1
:1011E000FFF734FCD120FFF7FDFBFFF77BFC00206D
:1011F000FFF7C2FB0546FFF74FFC284670BD2DE9FF
:10120000F04106460F4614461D46FFF71FFC00211D
:1012100041EA4601C8B2FFF7E5FBFFF763FC20B1E6
:10122000FFF73AFC0120BDE8F0813846FFF7DAFB12
:10123000FFF758FCFFF70AFC012101EB4601C8B299
:10124000FFF7D0FBFFF74EFC0DE0012C04D100208E
:10125000FFF792FB287003E00120FFF78DFB287059
:10126000601EC4B26D1C002CEFD1FFF715FC0020EE
:10127000D9E770B505460C46FFF7E8FBD020FFF72D
:10128000B1FBFFF72FFC18B1FFF706FC012070BD82
:101290002846FFF7A7FBFFF725FC2046FFF7A2FB38
:1012A000FFF720FC18B1FFF7F7FB0120EFE7FFF78E
:1012B000F3FB0020EBE700BFFEE710B5FFF785FC6E
:1012C00000F054F910BD000010B506480078002861
:1012D00006DD00F087F800F0E1F800200149087011
:1012E00010BD00009B010020FEB504460D461746C8
:1012F0001E467EB9002010214FF6FF72CDE9002175
:10130000029002EA051102EAC40000233A46FFF700
:10131000B7FD0FE0002010211F22CDE9002102902F
:101320004FF6FF7202EA051102EAC40013463A467C
:10133000FFF7A6FDFEBD70B52DED028B82B0044611
:101340000D46B0EE408A16468EB910204FF6FF715A
:10135000CDE9001001EA05114FF6FF7202EAC40060
:1013600000230422B0EE480AFFF704FE0FE010202D
:101370001F214FF6FF72CDE9001002EA051102EAC3
:10138000C40013460422B0EE480AFFF7F3FD02B092
:10139000BDEC028B70BDFEB504460D4617461E46D9
:1013A0007EB9002010214FF6FF72CDE90021029096
:1013B00002EA051102EAC40000233A46FFF734FEB0
:1013C0000FE0002010211F22CDE9002102904FF6EE
:1013D000FF7202EA051102EAC40013463A46FFF71B
:1013E00023FEFEBD10B529482949097800EB4112BA
:1013F000002319460120FFF7CEFF002325A202217A
:101400000120FFF7C8FF21482149097800EB41106E
:101410004069D0ED000AB0EE600A002202210820E7
:10142000FFF789FF00242DE018481949097800EBDF
:101430004110806904EB840110F8210008B31348BF
:10144000134B1B7800EB4310806904EB840300EB23
:101450008302E01C81B200230120FFF79CFF0B48B0
:101460000B4A127800EB4210C06950F82400D0ED0E
:10147000000AB0EE600AE01C81B200220820FFF7EB
:101480005AFF641C052CCFDB10BD0000180400209F
:101490009C01002053746570203D000010B50024AD
:1014A00006E0A1B2002320221846FFF71DFF641CAE
:1014B000082CF6DB08480078072802DD07200649DB
:1014C000087005480078022802DA022002490870F4
:1014D00001F002FB10BD00009A01002070470000DF
:1014E00070B5002100230F22C4781CB3174C246868
:1014F00004F4E064C4F5E064C4F30721C1F104041A
:10150000E3B20A4144789C40E1B28478144021431C
:101510000C07210E0E4C05786155047804F01F0568
:101520000124AC4005786D11AD0005F1E025C5F84A
:10153000004109E0047804F01F050124AC40054D8A
:101540000678761145F8264070BD00000CED00E0ED
:1015500000E400E080E100E002490143024A11603A
:10156000704700000000FA050CED00E010B51848C7
:101570001849486118A1174800F094FC184815490B
:1015800088616430C86112491248416315A1203056
:1015900000F088FC15490F48816301F164000D4992
:1015A000C8630B490B48416511A1403000F07AFC3B
:1015B00011490848816501F164000649C8650220A7
:1015C0000E49087001200E490870FFF70BFF10BD8F
:1015D000B40100201804002050616765203100002C
:1015E000BC010020506167652032000034020020F9
:1015F0005061676520330000AC0200209A01002092
:101600009B0100207047000029B1064A126802437E
:10161000044B1A6004E0034A12688243014B1A60CB
:10162000704700003038024029B1064A1268024370
:10163000044B1A6004E0034A12688243014B1A60AB
:101640007047000040380240F0B50021002200241D
:10165000022500260223324F3F6807F00C0121B11A
:10166000042905D0082937D105E02E4F076036E060
:101670002D4F076033E02A4F3F1F3F68C7F3805666
:10168000274F3F1F3F6807F03F036EB1264FB7FB60
:10169000F3F7DFF88CC0ACF1040CDCF800C0CCF33D
:1016A000881C07FB0CF40CE01E4FB7FBF3F7DFF8C8
:1016B00070C0ACF1040CDCF800C0CCF3881C07FB54
:1016C0000CF4174F3F1F3F68C7F301477F1C7D0095
:1016D000B4FBF5F7076002E0124F076000BF00BFE0
:1016E0000F4F3F6807F0F0010909104F7A5C076857
:1016F000D74047600A4F3F6807F4E051890A0B4F13
:101700007A5C4768D7408760054F3F6807F46041BF
:10171000490B064F7A5C4768D740C760F0BD0000B0
:10172000083802400024F40000127A00240000204F
:1017300001464A6A10B200224A62704770470000B0
:101740000CB50020019000903448006840F48030CF
:101750003249086000BF3148006800F40030009052
:101760000198401C0190009818B90198B0F5A04F5D
:10177000F1D12A48006800F4003010B10120009037
:1017800001E0002000900098012846D12348403015
:10179000006840F0805021494031086020480068CE
:1017A00040F440401E4908601C48083000681B494E
:1017B000083108600846006840F4004008600846A8
:1017C000006840F4A05008601648091F0860081F10
:1017D000006840F08070091F086000BF0F48006873
:1017E00000F000700028F9D040F205700E49086042
:1017F0000A480830006820F00300084908310860F2
:101800000846006840F00200086000BF0348083046
:10181000006800F00C000828F8D10CBD0038024028
:101820000070004008544007003C0240042808D1E2
:101830004FF0E021096941F004014FF0E02211610D
:1018400007E04FF0E021096921F004014FF0E022A8
:101850001161704702480068401C014908607047E8
:101860002000002070B50020002202230024022165
:10187000274D2D6805F00C0020B1042806D008285B
:1018800034D107E0234D244E356033E0234D224E02
:1018900035602FE01E4D2D1F2D68C5F380541C4D63
:1018A0002D1F2D6805F03F0154B11C4DB5FBF1F51E
:1018B000174E361F3668C6F3881605FB06F209E098
:1018C000144DB5FBF1F5124E361F3668C6F3881677
:1018D00005FB06F20E4D2D1F2D68C5F301456D1C4D
:1018E0006B00B2FBF3F50C4E356003E0094D0A4E78
:1018F000356000BF00BF064D2D68C5F30315084EC7
:10190000705D054D2D68C540034E356070BD00000B
:10191000083802400024F4000000002000127A0081
:101920000400002010B51548006840F47000134909
:1019300008601348006840F0010011490860002069
:101940000F49083108600E4800680E4908400C49EC
:1019500008600D48091D0860081F006820F48020F9
:10196000091F0860002006490C310860FFF7E8FEF7
:101970004FF0006001498039086010BD88ED00E03B
:1019800000380240FFFFF6FE1030002410B50121A0
:101990000A4800F01BF901280AD109490869804763
:1019A0000021064800F02EF96421044800F028F9CF
:1019B0000121024800F0EFF810BD000000080040CF
:1019C0008800002010B50121054800F0FFF828B17B
:1019D00001F060F90121024800F0DDF810BD0000BF
:1019E00000100040F0B589B0044601211020FFF737
:1019F0001BFE01A8FFF728FE039DDDE90201B0FBF5
:101A0000F1F0012800D96D0000BF4FF47A70B5FBEA
:101A1000F0F0471E4FF47A7060434FF47A71B0FBD8
:101A2000F1F0461E0796B8B2ADF818000020ADF8E8
:101A30001A00ADF8200006A90E4800F0E5F80122D2
:101A400011460C4800F0D3F801210A4800F0A6F82E
:101A500036208DF8140001208DF8150000208DF837
:101A6000160001208DF8170005A8FFF739FD09B011
:101A7000F0BD00000010004010B50121164800F034
:101A8000A5F840B30121144800F085F81348FFF78A
:101A90004FFE00EE100AB8EEC00A114880ED000AB1
:101AA0001048FFF745FE00EE100AB8EEC00A0E48D7
:101AB00080ED000A90ED000ABDEEC00A10EE100A9B
:101AC00001B2074890ED000ABDEEC00A10EE100A00
:101AD00000B200F063FE10BD00140040000400409E
:101AE00088010020000800408C0100202DE9F04111
:101AF00088B0074601212020FFF796FD6846FFF7D2
:101B0000A3FD029EDDE90101B0FBF1F0012800D93F
:101B1000760042F210784046B6FBF0F0441E404694
:101B200078434FF47A71B0FBF1F0451EB4F5803F75
:101B300002D2B5F5803F01D300BFFEE70695A0B203
:101B4000ADF814000020ADF81600ADF81C0005A992
:101B50000E4800F059F8012211460C4800F047F8F1
:101B600001210A4800F01AF837208DF810000120F2
:101B70008DF8110002208DF8120001208DF813005D
:101B800004A8FFF7ADFC08B0BDE8F08100140040E8
:101B9000CA4302827047CA430282704721B1028859
:101BA00042F00102028004E002884FF6FE731A4000
:101BB000028070470146486A704702460020138A37
:101BC0000B400BB1012000E00020704730B5024609
:101BD000002000230024158A05EA0103958905EAFF
:101BE000010413B10CB1012000E0002030BD1AB196
:101BF00083890B43838102E083898B438381704710
:101C0000C16270474162704700220288184B9842B7
:101C10000ED0184B98420BD0B0F1804F08D0164B25
:101C2000984205D0154B984202D0154B984204D1EA
:101C30004FF68F731A404B881A43124B984207D0C5
:101C4000114B984204D04FF6FF431A400B891A43B8
:101C500002804B68C3620B880385054B984202D013
:101C6000044B984201D18B7A03860123838270470B
:101C70000000014000040140000400400008004052
:101C8000000C004000100040001400407FB50446E6
:101C90000D4601210420FFF7C7FCADF800500020DD
:101CA000ADF802000194ADF8080069460D48FFF751
:101CB000ABFF012211460B48FFF799FF01210948AC
:101CC000FFF76CFF1E208DF80C0003208DF80D002F
:101CD0008DF80E0001208DF80F0003A8FFF700FC1F
:101CE0007FBD0000000800400748007807280ADA96
:101CF00005480078401C044908700020034908701A
:101D000001200349087070479A01002099010020C2
:101D10009B0100200748007802280ADD054800786A
:101D2000401E04490870002003490870012003493F
:101D3000087070479A010020990100209B01002043
:101D400008480078401C032190FBF1F201FB1200CF
:101D500004490870002004490870012003490870F4
:101D6000704700009C010020990100209B01002089
:101D700010B540F22551024800F058F810BD00009F
:101D80000010014070B52648008800F020000028AF
:101D900044D02348001D0088C4B2AA2C0BD121488E
:101DA000007840B91F4801780078401C1D4A107027
:101DB0001D48445431E01B48007800282DDD1948A7
:101DC00001780078401C174A107017484454104698
:101DD0000078022821DD1448457810460178681DF6
:101DE000814219D129461048801C00F0C9FC0646E2
:101DF0000D49A81C085CB0420AD10A480078401E70
:101E0000085C552804D129460748801C01F041F997
:101E100000200449087000BF00BF00BF70BD000073
:101E200000480040240300207804002070B50246DA
:101E3000002400230025002040F66A16B14200D19C
:101E400000BFC1F3421501F01F03012606FA03F398
:101E5000012D02D19689334006E0022D02D1168A67
:101E6000334001E0968A33400C12012606FA04F44E
:101E70001688344013B10CB1012000E0002070BD81
:101E800000BFFEE70FB4054B10B503A9044A029842
:101E900000F0EEF810BC5DF814FB000035290008D6
:101EA000180000200FB4084B10B504A902AA03982B
:101EB00000F0DEF8044602A9002000F05CFC204699
:101EC00010BC5DF814FB00007727000802E008C88A
:101ED000121F08C1002AFAD170477047002001E0A4
:101EE00001C1121F002AFBD1704700002DE9FF5FDE
:101EF00082B00021DDE90430020DDDF840B003437B
:101F000018D044F61050A2F2FF3242431514119833
:101F100001281FD0A5EB0B00401C5FEA000A4FF020
:101F200000064E4FDFF83891B046504615D5CAF13D
:101F3000000413E0119801244AA3012801D16FEA9B
:101F40000B010298119AC0E90031C0E9024206B0C3
:101F5000BDE8F09FCBF10000DFE704460021404AD6
:101F6000491842EB0450CDE9001012E0E00707D019
:101F700032463B4640464946FEF7CBF98046894605
:101F800032463B4610461946FEF7C3F906460F4651
:101F90006410002CEAD1DDE90401DDE90023BAF187
:101FA000000F06DAFEF7B5F942464B46FEF7B1F9E7
:101FB00005E0FEF720FA42464B46FEF71CFA0446BF
:101FC0000E460022284BFEF7C7FB03D84FF0FF3028
:101FD000014607E00022254B20463146FEF7F2F885
:101FE000FEF7A1FB102409E0002C0ADB0A220023E3
:101FF000FEF7B3FA039B30321A55641E50EA010211
:10200000F2D1641C039AC4F111031444119A012AF9
:1020100003D0012208430DD10AE0084304D0002078
:102020004FF0110B119072E7A3EB0B056D1E0DE045
:102030005B4504DD4FF0000205F1010504E003DA21
:102040004FF00002A5F10105002AECD00298119989
:10205000C0E90231C0E9004579E700000000144002
:102060000000F03F300000000000F0430000E03FBF
:102070002DE9FF4F95B09A46884606460025EEE1C9
:10208000252877D100242746F94A0121039400E04E
:10209000044316F8013F203B01FA03F01042F7D148
:1020A00030782A2811D06FF02F033078A0F1300259
:1020B000092A16D8039A44F0020402EB820203EBC9
:1020C00042021044761C0390EFE758F8042B039269
:1020D000002A03DA504244F40054039044F002040E
:1020E000761C30782E2816D116F8010F44F004041F
:1020F0002A280DD06FF02F023078A0F13003092B81
:1021000009D807EB870302EB4303C718761CF3E7F4
:1021100058F8047B761C30786C280FD006DC4C28ED
:1021200017D068280DD06A2814D104E0742810D084
:102130007A280FD10DE044F400140AE044F480142E
:1021400001E044F440147278824202D104F5801414
:10215000761C761C307866280BD013DC582877D094
:1021600009DC002875D04528F6D04628F4D0472849
:102170001AD193E118E0632835D0642879D0652816
:1021800012D18BE1702873D008DC6728F1D0692860
:102190006FD06E280DD06F2806D1ACE073282CD0FC
:1021A000752874D0782853D05246179990476D1CE3
:1021B00054E1C4F30250022809D003280DD0D8F806
:1021C000001004280DD00D6008F1040846E1D8F88D
:1021D0000010EA17C1E90052F6E7D8F800100D80A8
:1021E000F2E70D70F0E718F8041B8DF800100020DE
:1021F0008DF80100EB46012003E058F804BB4FF0D6
:10220000FF3061074FF0000102D40DE009F1010138
:102210008946B9420FDA8145F8DB1BF8091000291D
:10222000F4D108E009F1010189468142FADB1BF88B
:1022300009100029F6D103985346A0EB090721465F
:102240003846179A00F080FA284400EB090507E0A9
:1022500044E008E10DE01BF8010B52461799904746
:10226000B9F10109F7D2534621463846179AF2E0F0
:1022700039E00A21C4F302524FF0000B0091022A08
:1022800006D058F8040BC117032A09D00AE023E04E
:1022900008F1070020F00702F2E80201904605E08D
:1022A00000B2C117042A01D140B2C117002906DAD1
:1022B0000A460021404261EB02012D2202E0220584
:1022C00004D52B228DF80420012203E0E20701D07F
:1022D0002022F7E7914657E00A2100E010214FF055
:1022E000000B00910BE010214FF0000B44F00404B0
:1022F0000827009103E008204FF0000B0090C4F382
:102300000252022A05D058F8040B0021032A08D0F3
:1023100008E008F1070020F00702F2E80201904609
:1023200003E080B2042A00D1C0B24FF000092207B6
:102330002AD53278702A07D0DDF800C08CF0100C56
:102340005CEA0B0C05D00EE040228DF8042001223F
:1023500008E050EA010306D030238DF804308DF8F0
:10236000052002229146009B83F0080353EA0B03E9
:102370000AD150EA010201D1620705D530228DF859
:1023800004204FF001097F1E3278582A04D039A268
:102390000C920CAA02920BE03BA2F9E75B46009A72
:1023A000FEF7DBF80C9B9B5C029A521E02921370A4
:1023B00050EA0102F2D1029804A9081A00F1200B98
:1023C000600702D524F4803400E001275F4502DD78
:1023D000A7EB0B0000E0002000EB0B01009003983E
:1023E0004944401A0390E00306D453462146179A05
:1023F000039800F0A9F90544002706E001A8524619
:10240000C05D179990476D1C7F1C4F45F6DBE003BC
:102410000CD553462146179A039800F095F90544C8
:1024200004E030205246179990476D1C0099481ED1
:1024300000900029F5DC08E00298029952460078E5
:10244000491C0291179990476D1CBBF10001ABF13B
:10245000010BF1DC5BE100F065F90544761C307896
:1024600000287FF40DAE19B02846BDE8F08F0000BB
:10247000092801003031323334353637383961625A
:10248000636465660000000030313233343536371E
:10249000383941424344454600000000600700D4FB
:1024A000062708F1070020F00700F0E80223804625
:1024B00003F0004C5FEA0C0001D097A009E0200572
:1024C00001D596A005E0E00701D095A001E0AFF2AC
:1024D0004C001390307823F0004365280CD006DCC4
:1024E000452809D046281DD047287FD13BE06628E3
:1024F00018D067287AD136E00021112F01DB112096
:1025000000E0781CCDE9000104A90CA8FFF7EEFC5F
:10251000DDE90D010C9A4FF0000B07F10109109253
:1025200000914EE04FF000400097CDE9011004A962
:102530000CA8FFF7DBFCDDE90D020C9B0F994FF0B7
:10254000000B91461093009211B9791C00EB010920
:10255000B7EB090003D4C0F1FF3B07F10109A9EB78
:102560000700019042E0012F00DA01270021112F1E
:1025700001DD112000E03846CDE9000104A90CA8D6
:10258000FFF7B4FCDDE90D010C9A00914FF0000B50
:10259000B946109221070FD4009A4A4503DA9146B2
:1025A00001E0A9F10109B9F1010F05DD109AA9F1C6
:1025B0000101515C3029F4D0B84202DA10F1040F65
:1025C00003DA0121CDE9011010E0002803DC834487
:1025D000A9EB000102E0411C494500DD8946A0EB62
:1025E0000B00401C01904FF000400290200705D4E2
:1025F0000198484502DB4FF0FF30019000208DF834
:102600004B0002980DF14B07B0F1004F25D002208E
:102610000C902B200D90029800280CDA404202907A
:102620002D200D9007E00A210298FDF780FF303140
:10263000029007F8011D0C99481E0C900029F2DC4D
:1026400002980028EFD1791E0D980870307800F0BC
:10265000200040F0450007F8020D11A8C01BC01D66
:1026600002901398007800B1012000EB0901019855
:1026700001EBE071029801440398401A401E039058
:10268000E00306D453462146179A039800F05CF8FD
:1026900005441398007818B15246179990476D1C5D
:1026A000E00323D553462146179A039800F04CF8CF
:1026B00005441BE0BBF1000F07DB0098584504DD23
:1026C0001098179910F80B0001E017993020524626
:1026D000904701980BF1010B401E05F10105019097
:1026E00004D12E205246179990476D1CB9F1000174
:1026F000A9F10109DEDC05E017F8010B5246179934
:1027000090476D1C0299481E02900029F4DC534644
:102710002146179A03989EE62D0000002B0000002A
:10272000200000002DE9F041044600251E46174612
:10273000880404D405E039462020B0476D1C641E8F
:10274000F9D52846BDE8F0812DE9F0410446002581
:102750001E469046C80301D5302700E02027880494
:1027600004D505E041463846B0476D1C641EF9D5D6
:102770002846BDE8F0810A68531C0B601070704752
:1027800010B502460023002003E0145C6340441CA3
:10279000E0B28842F9DB184610BD000070B52DED9F
:1027A000068B05460C462846FDF794FE41EC1A0BB5
:1027B0009FED170B53EC102BFDF7ABFD41EC190B04
:1027C0009FED150B53EC102BFDF715FE41EC180B8C
:1027D000FDF791FE124908602046FDF77BFE41ECB3
:1027E0001A0B9FED0B0B53EC102BFDF792FD41ECF8
:1027F000190B9FED090B53EC102BFDF7FCFD41EC81
:10280000180BFDF778FE07490860BDEC068B70BD1C
:1028100000000040E17A943F00000040E17A34403B
:10282000900100209401002010B504466FF00400D0
:10283000FEF7FCFFE11704EB5171C1F3C701074A32
:1028400011701046007800EB4001C1EBC0104FF64C
:10285000FF7101EAC0000249088010BD1400002089
:102860001600002070B504464FF4077094FBF0F09A
:10287000C6B24FF4077094FBF0F100FB114085B233
:1028800005E04FF4077000F02FF8701EC6B2002E5E
:10289000F7D115B1284600F027F870BD0146114A5E
:1028A00012784A434FF0E0235A6100229A611A4697
:1028B000126942F001021A6100BF4FF0E022106974
:1028C00000F001021AB100F48032002AF5D04FF076
:1028D000E022126922F001024FF0E0231A61002287
:1028E0009A617047140000200146114A12884A4339
:1028F0004FF0E0235A6100229A611A46126942F0B1
:1029000001021A6100BF4FF0E022106900F00102DD
:102910001AB100F48032002AF5D04FF0E02212699B
:1029200022F001024FF0E0231A6100229A61704701
:102930001600002000BF054A128802F04002002A5B
:10294000F9D0C2B2014B9A807047000000100140DC
:1029500028480078012813D12748007802280FD092
:102960002648006890ED000A2548D0ED000A30EEB8
:10297000600A2248006880ED000A012021490870A1
:102980001C480078012818D11B480078022814D16F
:102990001B4890ED000ADFED1C0AB4EEE00AF1EEF0
:1029A00010FA07DD90ED000AF2EE040A80EE201A1C
:1029B00080ED001A01201349087014481449097861
:1029C00000EB4110406990ED000ADFED0F0AB4EE14
:1029D000E00AF1EE10FA0CD29FED0B0A0B480C49FD
:1029E000097800EB4110406980ED000A012005499B
:1029F00008707047990100209A010020B001002062
:102A0000B40100209B0100200AD7233C18040020B9
:102A10009C01002028480078012813D1274800781D
:102A200002280FD02648006890ED000A2548D0ED16
:102A3000000A30EE200A2248006880ED000A0120DA
:102A4000214908701C480078012818D11B480078DB
:102A5000022814D11B4890ED000ADFED1C0AB4EEE9
:102A6000E00AF1EE10FA07D290ED000AF2EE040A45
:102A700020EE200A80ED000A012013490870144856
:102A80001449097800EB4110406990ED000ADFED30
:102A90000F0AB4EEE00AF1EE10FA0CDD9FED0B0A1E
:102AA0000B480C49097800EB4110406980ED000AA1
:102AB0000120054908707047990100209A01002003
:102AC000B0010020B40100209B0100200000C8429A
:102AD000180400209C01002010B52D480078022821
:102AE00003DB2B480078072800DD10BD294800785B
:102AF00038B1002328A2264801781846FEF74BFC7F
:102B000006E0002325A2224801781846FEF743FC80
:102B10001F480078801E052836D2DFE800F0030D3C
:102B200017212B001E481F49097800EB4110C0698E
:102B300000681D49086027E019481A49097800EB28
:102B40004110C0694068184908601DE014481549E3
:102B5000097800EB4110C06980681349086013E0F0
:102B60000F481049097800EB4110C069C0680E4950
:102B7000086009E00A480B49097800EB4110C06978
:102B800000690949086000BF00BF00BFADE7000051
:102B90009A01002099010020260000003E0000005C
:102BA000180400209C010020B001002010B5002472
:102BB00062E0334890ED000AB5EEC00AF1EE10FA7B
:102BC00007D090ED000AF7EE000A30EE600A80EDC3
:102BD000000A04EB84002B4901EB8000407CA0B18B
:102BE00014B1012C10D107E0FFF77EF84FF400512B
:102BF0002548FDF76CFE07E0FFF70CFF4FF400518E
:102C00002148FDF762FE00BF00BF04EB84001D49B0
:102C100001EB8000807C88B114B1012C0DD109E05A
:102C200001201A4908701A49087041031648FDF737
:102C30004EFE02E0FFF784F800BF00BF04EB840003
:102C4000104901EB8000C07CA0B114B1012C10D15F
:102C500007E0FFF75FF84FF400510B48FDF737FE30
:102C600007E0FFF775FE4FF400510748FDF72DFE12
:102C700000BF00BF601CC4B2022C9ADB10BD000074
:102C8000B8010020F0030020000802409901002054
:102C90009B01002010B5002473E1BD4830F82400EA
:102CA00081B2BC48FDF708FE08B9012000E0002011
:102CB00004EB8401B84A02F8210004EB84001146B9
:102CC00011F8200004EB840102EB8101487004EB51
:102CD0008400114611F8200098B904EB840001EB40
:102CE0008000007C01280CD004EB840001EB800004
:102CF000007C052805D0002004EB840102EB810153
:102D0000486004EB8400A44911F8200098B104EB5A
:102D1000840001EB8000407868B104EB840001EB93
:102D2000800040689D490978084404EB84019A4A70
:102D300002EB8101486004EB8400974901EB8000BD
:102D4000007C022806D004EB840001EB8000007CAC
:102D500003280FD104EB84008F4901EB80008068C9
:102D60008E490978084404EB84018B4A02EB810107
:102D7000886006E0002004EB8401874A02EB8101B1
:102D8000886004EB8400844901EB8000007C072804
:102D900027D2DFE800F00427618CBDD1E5000020D8
:102DA00004EB84017C4A02EB8101487404EB84014A
:102DB00002EB8101887404EB840102EB8101C87489
:102DC00004EB840102EB8101C86004EB840011462E
:102DD00011F8200028B1012004EB840102EB8101ED
:102DE0000874CBE004EB84006B4901EB8000406881
:102DF000B0F5967F07D9052004EB8401664A02EB03
:102E00008101087427E004EB8400634911F8200075
:102E100008BB04EB840001EB800040680A2813D94A
:102E2000022004EB84015C4A02EB8101087404EB8C
:102E30008400114601EB8000C068401C04EB840153
:102E400002EB8101C86006E0002004EB8401524AD5
:102E500002EB8101087491E004EB84004E4901EB20
:102E60008000806896281AD204EB840001EB800071
:102E700040680A2812D9062004EB8401464A02EB76
:102E80008101087404EB8400114601EB8000C068E6
:102E9000401C04EB840102EB8101C8606EE0042059
:102EA00004EB84013C4A02EB8101087466E004EB08
:102EB0008400394901EB8000806896281AD204EB1F
:102EC000840001EB800040680A2813D9062004EB37
:102ED0008401314A02EB8101087404EB840011463D
:102EE00001EB8000C068401C04EB840102EB81010F
:102EF000C8600CE0012004EB8401274A02EB810149
:102F0000C874002004EB840102EB8101087435E0F1
:102F1000012004EB8401204A02EB8101487404EB98
:102F20008400114611F8200028B9002004EB840128
:102F300002EB8101087421E004EB8400164911F8CA
:102F4000200060B9012004EB8401134A02EB8101E7
:102F50008874002004EB840102EB810108740DE009
:102F600004EB84000C4911F8200030B9032004EB75
:102F70008401094A02EB8101087400BF00BF601C94
:102F8000C4B2022CFFF689AEFFF710FE10BD0000A0
:102F90007C01002000000240F0030020840100209A
:102FA00010B503201C49087000202FE0002100EB21
:102FB00080021A4B03F8221000EB800203EB82021E
:102FC000517000EB800203EB8202516000EB800243
:102FD00003EB8202916000EB800203EB8202D1607E
:102FE00000EB800203EB8202117400EB800203EB22
:102FF0008202517400EB800203EB8202917400EBB9
:10300000800203EB8202D174411CC8B20228CDDBDE
:10301000FDF798FD10BD000084010020F0030020A2
:1030200008B54FF4A060FEF797FAFEF71BFCA82046
:10303000FFF7FAFBFEF764F8FDF724FE4FF6FF708A
:1030400080231A46002100900846FDF7D7FD142082
:10305000FEF7C8FC0A20FEF749FDFEF72EF9FEF741
:10306000C1F9FFF79DFF4FF4FA70FFF7FBFB04E097
:10307000FEF72AF96420FFF7F5FBF9E710B50246E1
:10308000012000E050430B1EA1F10104E1B2F9D18F
:1030900010BD0A4601787047014608687047000075
:1030A00030B595B0054613AB12AA09A9284600F021
:1030B00039FA044614B1204615B030BD00201490F2
:1030C00026E0224909689DF8502001EBC20113ABAC
:1030D00011AA486801A900F025FA04460CB120465F
:1030E000EAE709A901A800F0BBFC60B99DF844001B
:1030F0009DF84810884201DD0220DDE79DF8500070
:10310000124988750AE09DF85000401CC0B2149026
:103110000E48007D9DF850108842D2DC00BF0B485D
:10312000007D9DF85010884201D10420C4E714A905
:10313000284600F0D7FA04460CB12046BCE79DF8BB
:103140005000024948750020B6E7000088000020C2
:103150002DE9F0419AB09C48847D007DA04202DCBC
:103160001AB0BDE8F0819849096801EBC40106ABCB
:1031700007AA486808A900F0D5F908A993A0FEF7A6
:1031800081FE002644E09048008B0121B1400840B8
:10319000D8B122218FA0FEF775FE304600F028FB43
:1031A00089492431471839468BA0FEF76BFE22214E
:1031B00088A0FEF767FE304600F01AFB82492431F2
:1031C000084410A941F8260018E0304600F010FB32
:1031D0007D492431085810A941F826007A48C07D5D
:1031E00030B910A850F826107CA0FEF74BFE05E081
:1031F00010A850F826107AA0FEF744FE9DF81C0097
:10320000401EB04202D078A0FEF73CFE701CC6B251
:103210009DF81C008642B6DB74A0FEF733FE00F07A
:1032200039FB6948407D0B280DD2DFE800F0060D20
:10323000151E27323F4E5F7287006349096851F8B7
:1032400034008047054690E05F4A126852F8341017
:1032500010988847054688E05B4B1B6853F834207C
:10326000DDE91001904705467FE0574F3F6857F86A
:10327000343010A807C89847054676E0DFF848C103
:10328000DCF800C05CF8347010A80FC8B8470546D9
:103290006BE01498DFF830C10090DCF800C05CF8F7
:1032A000347010A80FC8B84705465EE0DDE9140188
:1032B000DFF814C1CDE90001DCF800C05CF834701F
:1032C00010A80FC8B84705464FE0DDE9141216985C
:1032D000DFF8F4C0CDE900120290DCF800C05CF821
:1032E000347010A80FC8B84705463EE0DDE9142346
:1032F000DDE91610DFF8D0C0CDE90023CDE90210DA
:10330000DCF800C05CF8347010A80FC8B847054658
:103310002BE0DDE91523DDE91710CDE90123CDE927
:1033200003101498DFF8A0C00090DCF800C05CF82F
:10333000347010A80FC8B847054616E0DDE916231B
:10334000DDE91810CDE90223CDE90410DDE914010F
:10335000DFF874C0CDE90001DCF800C05CF834701F
:1033600010A80FC8B847054600BF00BF00F050FACC
:103370009DF8180001280CD11348C07D20B92946BA
:103380001BA0FEF77FFD07E029461BA0FEF77AFD94
:1033900002E018A0FEF776FD0B4890F8EC0088B12B
:1033A0000948D0F8F0000A21B0FBF1F201FB120746
:1033B0000548D0F8F000B0FBF1F83A46414611A0BC
:1033C000FEF760FD00BFCBE6880000200D0A2573E4
:1033D000280000002563000025730000256C75009F
:1033E00030582558000000002C0000002900000083
:1033F0003D256C753B0D0A003D305825583B0D0AA4
:103400000000000046756E6374696F6E2052756E21
:103410002054696D653A25642E2531646D730D0A5B
:1034200000000000F0B503461546002000220026EB
:10343000002455E01F782C2F01D104B901221F78F8
:10344000292F01D01F780FB904B94AE0002E34D1DA
:103450001F78302F02DB1F78392F11DD1F78612F85
:1034600002DB1F78662F0BDD1F78412F02DB1F78F0
:10347000462F05DD1F78582F02D01F78782F0CD1EA
:1034800002B12EE01F78612F03DB1F78203F0F7001
:1034900001E01F780F70491C1FE01F78222F04D114
:1034A00002B11EE00126012417E01F78202F14D05E
:1034B0001F782C2F11D0FF2613E01F78222F00D168
:1034C000002402B10DE044B11F785C2F02D15B1CD7
:1034D000471CF8B21F780F70491C471CF8B25B1CE0
:1034E000A8E700BF00270F702E70F0BD10B504468E
:1034F000002010700BE020780870641C491C1078C4
:10350000401C10701078984201DB012010BD20781B
:10351000202802D020780028EDD10020087000BFBC
:10352000F4E700002DE9FF4F85B08046894600276B
:10353000002004900390012002904FF0000B002522
:1035400044461DE02078202816D005F07F0005288D
:1035500012DA0DB945F0800505F07F00042803D18B
:1035600020782A2800D00EE0207805F07F010DF8A1
:103570000100681CC5B202E0852D00D103E0641C87
:1035800020780028DED100BF8DB1002005F07F013A
:103590000DF8010051A1684600F062FA18B9002147
:1035A0000898017002E001210898017000254FF091
:1035B000000A444614E0641C0AF1010000F0FF0A0E
:1035C0002078202802D020782A2809D1204600F02F
:1035D000D7F90646282E03D02A2E01D0CDF810A008
:1035E0002078282802D020780028E4D14446049886
:1035F00010B10498401C04444FF0000A002654E027
:10360000207810B94FF0010A50E02078282803D123
:1036100016B9781CC7B213E02078292808D13EB922
:1036200017B1781EC7B201E04FF0010A47B93DE07B
:103630002078222804D10EB9012000E0002006469F
:1036400047B9207820282FD0207889F8000009F188
:10365000010929E020782C2804D101200290681C5F
:10366000C5B214E02078202811D0207828280ED068
:103670004DB9BBF1050F06DA20780DF80B000BF100
:10368000010000F0FF0B0298401CC0B20290012F15
:103690000AD10298022807D10298401CC0B20290B9
:1036A0000398401CC0B20390641CA9E700BF0398B4
:1036B000012809D100200DF80B0008A1684600F090
:1036C000CFF908B9002003900799039808700020EB
:1036D00089F80000504609B0BDE8F08F766F696444
:1036E000000000002DE9F043B5B005460F46002468
:1036F000002604E000213D488155701CC6B20A2E08
:10370000F8DB06E06D1C287818B9012035B0BDE85B
:10371000F08328782828F5D16D1C61E034AA694629
:103720002846FFF77FFE064635449DF8D00020B1BD
:10373000012827D0FF284CD149E09DF8000000B3B4
:1037400033A9684600F027F906460EB10220DDE7EE
:10375000204600F04DF825490A31339A0A50A1F16C
:103760002400008B0121A140884320491A39088395
:1037700004211E480155601CC4B20A2C01DD03203F
:10378000C4E726E0684600F087F9401C00F0FF0817
:10379000204600F02DF815490A3100EB0109494691
:1037A000684600F06EF911481A38018B0120A040DC
:1037B000014388B20D491A3908830C4800F8048087
:1037C000601CC4B20A2C01DD03209FE701E0022047
:1037D0009CE700BF2878292801D0287800B900E0AC
:1037E0009CE700BF3C70002090E70000A200002092
:1037F00002460020002105E0044B5B5C0344D8B284
:103800004B1CD9B29142F7DB70470000A2000020A8
:1038100010B501210D48FEF7D0F9012808D10C4858
:10382000D0F8F0004FF6FF7108440949C1F8F000E4
:103830000648FEF7BFF90649D1F8F01008440449DC
:10384000C1F8F0000846D0F8F00010BD00080040B4
:103850008800002010B5044604EBC40000EB0410FF
:103860000122C2EB800081B24FF47A70FEF70EFAAB
:1038700001200149C87510BD8800002010B502461E
:10388000012000E050430B1EA1F10104E1B2F9D187
:1038900010BD000010B501210848FEF779F94FF678
:1038A000FF710648FEF7ACF900210448FEF7AAF9BB
:1038B00000200349C1F8F00010BD000000080040DE
:1038C0008800002070B51D48008800F400400028E2
:1038D00033D01A480578002019494855194881689D
:1038E0001748884704461CB91649C868804721E034
:1038F000134800F0DDF80546012D00D02C46CCB170
:10390000012C06D0022C08D0032C0AD0042C10D194
:103910000BE00DA0FEF7B6FA0BE00EA0FEF7B2FA30
:1039200007E00FA0FEF7AEFA03E010A0FEF7AAFA38
:1039300000BF00BF00200149088070BD1C000020AE
:103940002803002088000020BAAFCAFDB4EDCEF3F2
:10395000210D0A00B2CECAFDB4EDCEF3210D0A004E
:10396000B2CECAFDCCABB6E0210D0A00CEB4D5D2A2
:10397000B5BDC6A5C5E4B5C4BAAFCAFD210D0A00E0
:103980000146491C00E0491C0878202801D1002983
:10399000F9D1087870472DE9F04307460E46002517
:1039A0004FF00A083C46002030601FE0207839289C
:1039B00002DC207830280ADA2078462802DC2078D9
:1039C000412804DA2078582809D1012D07D1207820
:1039D000412801DB4FF01008681CC5B205E02078D3
:1039E00000B904E00120BDE8F083641CDEE700BFFD
:1039F0003C46B8F1100F0FD1032D01DA0220F2E797
:103A00002078302806D16078582803D1A41CA81E3D
:103A1000C5B204E00320E6E70DB90420E3E71BE0AC
:103A20000DB1681EC5B22078392806DC2078302810
:103A300003DB2078A0F1300902E02078A0F13709FB
:103A400029464046FFF71AFF316809FB0010306035
:103A5000641C207800B900E0E2E700BF0020C2E764
:103A600002460AE010780B78984201D00120704796
:103A7000107800B902E0521C491CF3E700BF002097
:103A8000F5E706E002780A70027802B902E0401C0D
:103A9000491CF7E700BF70470146002005E00A789F
:103AA00002B903E0421CD0B2491CF8E700BF7047DE
:103AB00010B58CB004461E230BAA03A92046FFF7BD
:103AC00015FD0090009810B101200CB010BD9DF8BC
:103AD0002C00044400200B900EE040489DF82C2060
:103AE00050F8221003A8FFF7BBFF00B908E09DF8CB
:103AF0002C00401CC0B20B909DF82C000728ECD382
:103B000000BF9DF82C00072863D2DFE800F0040511
:103B10003C5E6564630000BF31A0FEF7B3F931A0DD
:103B2000FEF7B0F93FA0FEF7ADF94EA0FEF7AAF9F7
:103B30005CA0FEF7A7F96BA0FEF7A4F979A0FEF749
:103B4000A1F986A0FEF79EF98BA0FEF79BF990A045
:103B5000FEF798F994A0FEF795F999A0FEF792F96F
:103B60009EA0FEF78FF9A4A0FEF78CF9B0A0FEF797
:103B700089F9BDA0FEF786F9C8A0FEF783F9D4A0A5
:103B8000FEF780F99AE216A0FEF77CF9E0A0FEF7B6
:103B900079F900200B900EE0ED4800689DF82C208C
:103BA00000EBC2004168EBA0FEF76CF99DF82C0019
:103BB000401CC0B20B90E648007D9DF82C10884256
:103BC000EADC07A0FEF75EF978E205A0FEF75AF9F5
:103BD000C4E171E245E219E2ECE1000034000020AA
:103BE0000D0A00002D2D2D2D2D2D2D2D2D2D2D2DA2
:103BF0002D2D2D2D2D2D2D2D2D2D2D2D55534D4173
:103C000052542056332E312D2D2D2D2D2D2D2D2D71
:103C10002D2D2D2D2D2D2D2D2D2D2D2D2D2D2D20E1
:103C20000D0A00002020202055534D415254CAC790
:103C3000D3C9414C49454E54454BBFAAB7A2B5C460
:103C4000D2BBB8F6C1E9C7C9B5C4B4AEBFDAB5F7DF
:103C5000CAD4BBA5BDBBD7E9BCFE2CCDA8B9FD20FD
:103C60000D0A0000CBFC2CC4E3BFC9D2D4CDA8B947
:103C7000FDB4AEBFDAD6FACAD6B5F7D3C3B3CCD04B
:103C8000F2C0EFC3E6B5C4C8CEBACEBAAFCAFD2CF7
:103C9000B2A2D6B4D0D02ED2F2B4CB2CC4E3BFC9DA
:103CA0000D0A0000D2D4CBE6D2E2B8FCB8C4BAAF59
:103CB000CAFDB5C4CAE4C8EBB2CECAFD28D6A7B3C4
:103CC000D6CAFDD7D62831302F3136BDF8D6C62911
:103CD000A1A2D7D6B7FBB4AEA1A2BAAFCAFDC8EBBA
:103CE0000D0A0000BFDAB5D8D6B7B5C8D7F7CEAA47
:103CF000B2CECAFD292CB5A5B8F6BAAFCAFDD7EE2B
:103D0000B6E0D6A7B3D63130B8F6CAE4C8EBB2CE27
:103D1000CAFD2CB2A2D6A7B3D6BAAFCAFDB7B5209A
:103D20000D0A0000BBD8D6B5CFD4CABE2ED0C2D49F
:103D3000F6B2CECAFDCFD4CABEBDF8D6C6C9E8D643
:103D4000C3B9A6C4DC2CD0C2D4F6BDF8D6C6D7AA57
:103D5000BBBBB9A6C4DC2E0D0A000000BCBCCAF572
:103D6000D6A7B3D63A7777772E6F70656E6564768F
:103D70002E636F6D0D0A000055534D415254D3D040
:103D800037B8F6CFB5CDB3C3FCC1EE3A0D0A00008B
:103D90003F3A202020202020BBF1C8A1B0EFD6FA66
:103DA000D0C5CFA20D0A000068656C703A202020B3
:103DB000BBF1C8A1B0EFD6FAD0C5CFA20D0A000062
:103DC0006C6973743A202020BFC9D3C3B5C4BAAF9D
:103DD000CAFDC1D0B1ED0D0A0A00000069643A20A5
:103DE00020202020BFC9D3C3BAAFCAFDB5C44944FF
:103DF000C1D0B1ED0D0A0A006865783A2020202074
:103E0000B2CECAFD3136BDF8D6C6CFD4CABE2CBAA2
:103E1000F3B8FABFD5B8F12BCAFDD7D6BCB4D6B427
:103E2000D0D0BDF8D6C6D7AABBBB0D0A0A00000089
:103E30006465633A20202020B2CECAFD3130BDF83F
:103E4000D6C6CFD4CABE2CBAF3B8FABFD5B8F12BB8
:103E5000CAFDD7D6BCB4D6B4D0D0BDF8D6C6D7AA82
:103E6000BBBB0D0A0A00000072756E74696D653A7D
:103E7000312CBFAAC6F4BAAFCAFDD4CBD0D0BCC6D1
:103E8000CAB13B302CB9D8B1D5BAAFCAFDD4CBD06A
:103E9000D0BCC6CAB13B0D0A0A000000C7EBB0B4E3
:103EA000D5D5B3CCD0F2B1E0D0B4B8F1CABDCAE434
:103EB000C8EBBAAFCAFDC3FBBCB0B2CECAFDB2A25A
:103EC000D2D4BBD8B3B5BCFCBDE1CAF82E0D0A00F4
:103ED0002D2D2D2D2D2D2D2D2D2D2D2D2D2D2D2D12
:103EE0002D2D2D2D2D2D2D2D2D2D414C49454E5453
:103EF000454B2D2D2D2D2D2D2D2D2D2D2D2D2D2DBC
:103F00002D2D2D2D2D2D2D2D2D2D2D200D0A00008B
:103F10002D2D2D2D2D2D2D2D2D2D2D2D2D2D2D2DD1
:103F20002D2D2D2D2D2D2D2D2DBAAFCAFDC7E5B56B
:103F3000A52D2D2D2D2D2D2D2D2D2D2D2D2D2D2D39
:103F40002D2D2D2D2D2D2D2D2D2D2D2D200D0A001E
:103F50008800002025730D0A0000000059A0FDF71D
:103F600091FF00200B901AE0664909689DF82C200B
:103F700001EBC20101AB02AA486803A9FFF7D2FA1C
:103F8000604800689DF82C1050F8312003A95EA00D
:103F9000FDF778FF9DF82C00401CC0B20B905948EB
:103FA000007D9DF82C108842DEDCAFF2CC30FDF7AE
:103FB00069FF83E0AFF2D830FDF764FF0BAA03A9D5
:103FC0002046FFF72FFA9DF82C00C8B9694603A8D0
:103FD000FFF7E1FC0B909DF82C0020B94FA0009951
:103FE000FDF750FF0EE09DF82C00042801D00220C0
:103FF0006BE54DA0FDF746FF01204249C87501E081
:10400000022062E547A0FDF73DFF57E045A0FDF720
:1040100039FF0BAA03A92046FFF704FA9DF82C00EC
:10402000C8B9694603A8FFF7B6FC0B909DF82C00B1
:1040300020B942A00099FDF725FF0EE09DF82C0065
:10404000042801D0022040E53FA0FDF71BFF00201F
:104050002C49C87501E0022037E532A0FDF712FFB8
:104060002CE030A0FDF70EFF0BAA03A92046FFF7B6
:10407000D9F99DF82C00C8B9694603A8FFF78BFC55
:104080000B909DF82C0078B91E49009881F8EC003F
:10409000084690F8EC0018B130A0FDF7F3FE07E0F9
:1040A00035A0FDF7EFFE03E002200EE502200CE54F
:1040B0001CA0FDF7E7FE01E0012006E500BF00209F
:1040C00003E500002D2D2D2D2D2D2D2D2D2D2D2DEC
:1040D0002D2D2D2D2D2D2D2D2D2D2D2D2DBAAFCA64
:1040E000FD204944202D2D2D2D2D2D2D2D2D2D2D17
:1040F0002D2D2D2D2D2D2D2D2D2D2D2D2D2D2D2DF0
:10410000200D0A008800002025732069642069734F
:104110003A0D0A3058253038580D0A004845583AAB
:10412000305825580D0A00003136BDF8D6C6B2CE3B
:10413000CAFDCFD4CABE210D0A0000004445433A4F
:10414000256C750D0A0000003130BDF8D6C6B2CE20
:10415000CAFDCFD4CABE210D0A00000052756E20E0
:1041600054696D652043616C63756C6174696F6E31
:10417000204F4E0D0A00000052756E2054696D6587
:104180002043616C63756C6174696F6E204F4646A5
:104190000D0A0000016070470000000000000000F0
:1041A00000000000000000000000000808080808E7
:1041B000080800001818000000486C2412000000D5
:1041C00000000000000000000000002424247F12F2
:1041D00012127F12121200000000081C2A2A0A0C78
:1041E0001828282A2A1C0808000000222515151561
:1041F0002A585454542200000000000C1212120AD3
:1042000076252911916E00000006060403000000C7
:104210000000000000000000004020101008080806
:1042200008080810102040000002040808101010B0
:1042300010101008080402000000000008086B1CA1
:104240001C6B0808000000000000000008080808B7
:104250007F080808080000000000000000000000BF
:10426000000000000606040300000000000000003B
:10427000FE00000000000000000000000000000040
:1042800000000000060600000000804040202010D2
:1042900010080804040202000000001824424242F0
:1042A0004242424224180000000000080E0808089C
:1042B00008080808083E00000000003C4242422076
:1042C00020100804427E00000000003C42422018FA
:1042D00020404042221C00000000002030282424FE
:1042E00022227E20207800000000007E0202021AB6
:1042F00026404042221C0000000000382402021A1E
:1043000026424242241800000000007E22221010A3
:1043100008080808080800000000003C4242422447
:1043200018244242423C000000000018244242424D
:1043300064584040241C00000000000000001818D1
:104340000000000018180000000000000000000835
:1043500000000000000808040000004020100804CD
:1043600002040810204000000000000000007F0050
:1043700000007F0000000000000000020408102080
:1043800040201008040200000000003C4242464069
:1043900020101000181800000000001C225A55556B
:1043A00055552D42221C0000000000080818141466
:1043B000243C224242E700000000001F2222221E6D
:1043C00022424242221F00000000007C42420101C2
:1043D00001010142221C00000000001F2242424253
:1043E00042424242221F00000000003F4212121EC1
:1043F00012120242423F00000000003F4212121E11
:1044000012120202020700000000003C22220101F9
:1044100001712122221C0000000000E742424242BA
:104420007E42424242E700000000003E08080808C1
:1044300008080808083E00000000007C101010105A
:10444000101010101010110F0000007722120A0E29
:104450000A12122222770000000000070202020264
:1044600002020202427F0000000000773636363634
:104470002A2A2A2A2A6B0000000000E346464A4AFC
:1044800052525262624700000000001C224141412A
:1044900041414141221C00000000003F4242424293
:1044A0003E020202020700000000001C22414141BE
:1044B00041414D53321C60000000003F4242423EE9
:1044C0001212222242C700000000007C4242020475
:1044D00018204042423E00000000007F49080808C2
:1044E00008080808081C0000000000E74242424299
:1044F00042424242423C0000000000E74242222485
:1045000024141418080800000000006B49494949A8
:104510005555362222220000000000E742242418CC
:104520001818242442E70000000000772222141407
:1045300008080808081C00000000007E2120101058
:1045400008040442423F00000078080808080808F0
:104550000808080808087800000002020404080897
:104560000810102020204040001E101010101010C5
:104570001010101010101E00003844000000000041
:10458000000000000000000000000000000000002B
:1045900000000000000000FF00060800000000000E
:1045A0000000000000000000000000000000003CCF
:1045B0004278444242FC0000000000030202021A5A
:1045C00026424242261A0000000000000000003887
:1045D000440202024438000000000060404040787D
:1045E0004442424264D80000000000000000003C49
:1045F000427E0202423C0000000000F08808087E73
:1046000008080808083E0000000000000000007CC8
:1046100022221C023C42423C000000030202023AF9
:104620004642424242E700000000000C0C00000E2F
:1046300008080808083E000000000030300000387C
:10464000202020202020221E0000000302020272EF
:10465000120A1612227700000000000E080808084F
:1046600008080808083E0000000000000000007F65
:104670009292929292B70000000000000000003B6E
:104680004642424242E70000000000000000003CB9
:1046900042424242423C0000000000000000001B79
:1046A00026424242221E020700000000000000785D
:1046B00044424242447840E000000000000000779D
:1046C0004C040404041F0000000000000000007CF3
:1046D00042023C40423E0000000000000008083E4C
:1046E000080808080830000000000000000000630F
:1046F0004242424262DC000000000000000000E78D
:10470000422424140808000000000000000000EB10
:1047100049495555222200000000000000000076A3
:1047200024181818246E000000000000000000E7A4
:104730004224241418080807000000000000007E2E
:1047400022100808447E000000C0202020202010F5
:10475000202020202020C000101010101010101059
:10476000101010101010101000060808080808108B
:1047700008080808080806000C32C2000000000003
:104780000000000000000000000000000000000029
:104790000000000000000000000000000000000019
:1047A0000000000000000000000000000000000009
:1047B00000000000000000000000000000000000F9
:1047C00000000000000000000000000000000000E9
:1047D0000000C001C001C001C001C001C001C00192
:1047E0008000800080008000800080008000000049
:1047F0000000000000008001C003C0038001000031
:104800000000000000000000000000000000E01CAC
:10481000E01CF01E700E3807180308018400000029
:104820000000000000000000000000000000000088
:104830000000000000000000000000000000000078
:104840000000000000000000000000000000000068
:104850000000000020102010201020102010FE7FEB
:10486000FE7F100810081008100810081008100823
:10487000FE7FFE7F08040804080408040804000002
:104880000000000000000000000000000000000028
:1048900000010001C00760191031183118391839AA
:1048A00038017001E001C0038007000F001D0039CE
:1048B00000311C311C310C310C11180DE0070001C6
:1048C00000010001000000000000000000000000E6
:1048D000000000001C1036186308630C63046304B6
:1048E000630263026301361D9C378022806340634C
:1048F000406320632063306310221836081C0000D8
:1049000000000000000000000000000000000000A7
:1049100000000000F00098018C018C018C018C01DA
:104920008C00CC007800183E1C083608320863045E
:104930006304C304C303834306438E26781C00002C
:1049400000000000000000000000000000001C004B
:104950003C003C003000300010000C00060000005D
:104960000000000000000000000000000000000047
:104970000000000000000000000000000000000037
:1049800000000000000000000000000000000040E7
:10499000002000100008000C0004000600030003C3
:1049A000000380018001800180018001800180017D
:1049B000800100030003000300060006000C00084D
:1049C0000010002000400000000000000000020075
:1049D000040008001000300020006000C000C0008B
:1049E000C000800180018001800180018001800180
:1049F0008001C000C000C0006000600030001000F6
:104A00000800040002000000000000000000000098
:104A1000000000000000000000018003800300018E
:104A20001C713C79783DC0070001C007783D3C7996
:104A30001C71000180038003800100000000000061
:104A40000000000000000000000000000000000066
:104A50000000000000000000000000010001000153
:104A60000001000100010001FC7F000100010001C4
:104A70000001000100010001000000000000000032
:104A80000000000000000000000000000000000026
:104A90000000000000000000000000000000000016
:104AA0000000000000000000000000000000000006
:104AB00000000000000000001C003C003C00300032
:104AC000300010000C000600000000000000000094
:104AD00000000000000000000000000000000000D6
:104AE0000000000000000000FE7F00000000000049
:104AF00000000000000000000000000000000000B6
:104B000000000000000000000000000000000000A5
:104B10000000000000000000000000000000000095
:104B20000000000000000000000000000000000085
:104B300000000000000018003C003C0018000000CD
:104B40000000000000000000000000000000004025
:104B5000006000200030001000180008000C000465
:104B6000000600020003000180018000C000400038
:104B70006000200030001000180008000C00040045
:104B8000060002000000000000000000000000001D
:104B900000000000C007600C3018183018301820D2
:104BA0000C600C600C600C600C600C600C600C60A5
:104BB0000C601820183018303018600CC007000046
:104BC00000000000000000000000000000000000E5
:104BD0000000000000018001F801800180018001D7
:104BE00080018001800180018001800180018001BD
:104BF00080018001800180018001C003F81F000056
:104C000000000000000000000000000000000000A4
:104C100000000000E007101C0818043004300C30BD
:104C20000C30003000180008000400020001800071
:104C300040002020102008200430FC1FFC1F000032
:104C40000000000000000000000000000000000064
:104C500000000000E003180E0C0C0C180C180C18C7
:104C60000018000C0006C003000E001800100030F1
:104C700000300C300C300C100C18180CE003000045
:104C80000000000000000000000000000000000024
:104C900000000000000C000E000E000F800E800EC1
:104CA000400E600E200E100E100E080E040E040EA4
:104CB000FE7F000E000E000E000E000E000EC07FE4
:104CC00000000000000000000000000000000000E4
:104CD00000000000F03FF03F10001000100008003E
:104CE0000800C807280C18180810003000300030E1
:104CF00000300C300C3004180418080CF0030000CD
:104D000000000000000000000000000000000000A3
:104D100000000000800FC010203010301800180074
:104D200008000C008C0F6C183C301C600C600C6090
:104D30000C600C601860182030306018C00700004C
:104D40000000000000000000000000000000000063
:104D500000000000F83FF83F1C100C080408040491
:104D60000004000200020001000100018000800038
:104D70008000C000C000C000C000C000C000000033
:104D80000000000000000000000000000000000023
:104D900000000000E007300C18180C300C300C300C
:104DA0001C3038187008E007B007180E0C1C0638C5
:104DB00006300630063006300C18180CE0030000F0
:104DC00000000000000000000000000000000000E3
:104DD00000000000E00318040C080C180610063050
:104DE00006300630063006380C3C1836F0310030FC
:104DF0000018001800180C0C0C060C03F001000041
:104E000000000000000000000000000000000000A2
:104E10000000000000000000000000000000000092
:104E200000008001C003C0038001000000000000FA
:104E30000000000000008001C003C00380010000EA
:104E40000000000000000000000000000000000062
:104E50000000000000000000000000000000000052
:104E60000000C000C00000000000000000000000C2
:104E700000000000000000000000C000C000800032
:104E80008000400040000000000000000000000022
:104E9000000000200010000800040006000380014C
:104EA000C0006000300018000C00180030006000E6
:104EB000C00080010003000600040008001000206C
:104EC00000000000000000000000000000000000E2
:104ED00000000000000000000000000000000000D2
:104EE0000000FE7F00000000000000000000FE7FC8
:104EF00000000000000000000000000000000000B2
:104F000000000000000000000000000000000000A1
:104F1000000004000800100020006000C0008001B4
:104F200000030006000C001800300018000C0006FA
:104F300000038001C0006000200010000800040091
:104F40000000000000000000000000000000000061
:104F50000000C0073018083008600C601C601C603E
:104F60001C600030001C00060001800080008000F2
:104F70008000000000008001C003C0038001000029
:104F80000000000000000000000000000000000021
:104F900000000000C0076018103018200C2F8C4D46
:104FA000864CC64CC64C664C6644664466266626ED
:104FB0006615CC1C0C40082018303018C0070000C3
:104FC00000000000000000000000000000000000E1
:104FD00000000001C001C001C001400160032003C6
:104FE000200320033006100610061006F80F080CE8
:104FF000080C080C0C0C0418041806181F7C000080
:1050000000000000000000000000000000000000A0
:1050100000000000FE07181C18381830183018302F
:1050200018301818180CF8071818183018201860BD
:10503000186018601860186018301818FE0F00000B
:105040000000000000000000000000000000000060
:1050500000000000C0276038103018200C400C40C1
:105060000400060006000600060006000600060012
:1050700006000C400C400C2018303018C00700000F
:105080000000000000000000000000000000000020
:1050900000000000FE03180E1818183018301830E1
:1050A0001860186018601860186018601860186040
:1050B00018601830183018101818180EFE03000069
:1050C00000000000000000000000000000000000E0
:1050D00000000000FE3F183018201860184018002B
:1050E00018081808180CF80F180C180818081800D9
:1050F000180018001840184018201830FE3F000013
:10510000000000000000000000000000000000009F
:1051100000000000FE7F1870184018C018801800AA
:10512000181018101818F81F181818101810180050
:105130001800180018001800180018007E00000061
:10514000000000000000000000000000000000005F
:1051500000000000C013701C101018100C200C2050
:1051600004000600060006000600060006FC0630E5
:1051700006300C300C30183018303008C0070000F2
:10518000000000000000000000000000000000001F
:10519000000000003F7E0C180C180C180C180C189E
:1051A0000C180C180C180C18FC1F0C180C180C18E8
:1051B0000C180C180C180C180C180C183F7E00005A
:1051C00000000000000000000000000000000000DF
:1051D00000000000F81F8001800180018001800133
:1051E00080018001800180018001800180018001B7
:1051F000800180018001800180018001F81F000092
:10520000000000000000000000000000000000009E
:1052100000000000E07F0006000600060006000611
:10522000000600060006000600060006000600064E
:10523000000600060006000600060006000600063E
:105240000E060E038E01FC000000000000000000AE
:10525000000000007E7C18181808180418061802B0
:10526000180198019801D801B803380318071806E7
:10527000180E180C181C1818183018307EFC000076
:10528000000000000000000000000000000000001E
:10529000000000007E001800180018001800180018
:1052A000180018001800180018001800180018003E
:1052B000180018001840184018201830FE3F000051
:1052C00000000000000000000000000000000000DE
:1052D000000000001FF81C381C381C381C3C3434FB
:1052E0003434343434367432643264326432643187
:1052F000C431C431C431C430C43084309FFC000098
:10530000000000000000000000000000000000009D
:10531000000000001F7C1C103C103410341074106E
:105320006410E410C410C41184118413041304170E
:105330000416041E041C041C041C04181F1800007E
:10534000000000000000000000000000000000005D
:1053500000000000C003300C181808100C300C308E
:10536000066006600660066006600660066006600D
:1053700006600C200C3008101818300CC003000018
:10538000000000000000000000000000000000001D
:1053900000000000FE0F1818183018601860186020
:1053A0001860186018301818F80F18001800180046
:1053B0001800180018001800180018007E000000DF
:1053C00000000000000000000000000000000000DD
:1053D00000000000C003300C18180C100C300C201A
:1053E000066006600660066006600660066006608D
:1053F0000660E4612C331C321816300EC007004CD6
:10540000007C0038000000000000000000000000E8
:1054100000000000FE07181C18381830183018302B
:1054200018301818180CF8079803180318071806EE
:105430001806180E180C180C181C18187E78000086
:10544000000000000000000000000000000000005C
:1054500000000000E027303818300C200C200C0031
:105460000C0018007800E003800F001E0038007068
:10547000006004600460086018303818C80F00002D
:10548000000000000000000000000000000000001C
:1054900000000000FC3F8C21846182418241800138
:1054A00080018001800180018001800180018001F4
:1054B000800180018001800180018001E0070000FF
:1054C00000000000000000000000000000000000DC
:1054D000000000003F7C0C100C100C100C100C1085
:1054E0000C100C100C100C100C100C100C100C10DC
:1054F0000C100C100C100C1008083804E00300000D
:10550000000000000000000000000000000000009B
:10551000000000003EF8182018201820301030102D
:1055200030103010600860086008E00CC004C0044F
:10553000C004800380038003800300010001000099
:10554000000000000000000000000000000000005B
:1055500000000000DFF38661862186218C210C216A
:105560008C238C138C138C134C1358125816580E12
:10557000380E380E380E300C1004100410040000E1
:10558000000000000000000000000000000000001B
:10559000000000007E3E1808380830043004700215
:1055A0006002E001C001C0018001800340034007A8
:1055B00020062006100C100C081808183E7C00006D
:1055C00000000000000000000000000000000000DB
:1055D000000000007E7C1C10181018083008300CE9
:1055E000700460046002C002C002C001800180013A
:1055F000800180018001800180018001E0070000BE
:10560000000000000000000000000000000000009A
:1056100000000000F83F18180818040C040E0006DB
:105620000007000380038001C001C000E0006000AB
:1056300070003000382018201C100C18FE1F0000CD
:105640000000000000000000000000000000C03F5B
:10565000400040004000400040004000400040004A
:10566000400040004000400040004000400040003A
:10567000400040004000400040004000400040002A
:105680004000C03F000000000000000000000000DB
:105690000000080018001800100030002000600012
:1056A00060004000C0008000800180010001000314
:1056B0000002000600060004000C00080018001894
:1056C0000010003000200000000000000000FC037B
:1056D00000020002000200020002000200020002BA
:1056E00000020002000200020002000200020002AA
:1056F000000200020002000200020002000200029A
:105700000002FC0300000000000000000000800711
:10571000C00620081010000000000000000000007B
:105720000000000000000000000000000000000079
:105730000000000000000000000000000000000069
:105740000000000000000000000000000000000059
:105750000000000000000000000000000000000049
:105760000000000000000000000000000000000039
:105770000000000000000000000000000000000029
:10578000000000000000FFFF0000000000007800A3
:10579000C000000100000000000000000000000048
:1057A00000000000000000000000000000000000F9
:1057B00000000000000000000000000000000000E9
:1057C00000000000000000000000000000000000D9
:1057D00000000000000000000000000000000000C9
:1057E0000000F00318060C0C0C0C000C800F700C61
:1057F0001C0C0C0C060C060C064C0C4FF838000068
:105800000000000000000000000000000000000098
:10581000000010001E0018001800180018001800E2
:105820001800180FD81838303860186018601860E1
:10583000186018601860182038307818C807000001
:105840000000000000000000000000000000000058
:105850000000000000000000000000000000000048
:105860000000C007700C181818180C180C000C0059
:105870000C000C000C20182018103008C007000085
:105880000000000000000000000000000000000018
:1058900000000010001E0018001800180018001862
:1058A0000018E01B301C181818180C180C180C18CD
:1058B0000C180C180C180818181C307AE009000095
:1058C00000000000000000000000000000000000D8
:1058D00000000000000000000000000000000000C8
:1058E0000000C007300C181808100C300C30FC3FBA
:1058F0000C000C000C00182018107018C0070000D5
:105900000000000000000000000000000000000097
:1059100000000000003E80C380C0C0C0C000C000C6
:10592000C000FC1FC000C000C000C000C000C0001C
:10593000C000C000C000C000C000C000F80F0000E0
:105940000000000000000000000000000000000057
:105950000000000000000000000000000000000047
:105960000000C077306C1018181818181818101884
:10597000300CF00718001800F00FF03F08700C60B2
:105980000C600C603838E00F0000000000000000E0
:10599000000010001E001800180018001800180061
:1059A0001800980FD81838301830183018301830C0
:1059B0001830183018301830183018307EFC0000BD
:1059C00000000000000000000000000000000000D7
:1059D000000000008003800380030000000000003E
:1059E0000001F801800180018001800180018001B7
:1059F000800180018001800180018001F81F00008A
:105A00000000000000000000000000000000000096
:105A100000000000003800380038000000000000DE
:105A20000010801F00180018001800180018001837
:105A300000180018001800180018001800180018A6
:105A40000018180C1806F003000000000000000009
:105A5000000010001E0018001800180018001800A0
:105A60001800183E180C1806180318019801D801E0
:105A7000380318071806180C181C18187E7C00002C
:105A80000000000000000000000000000000000016
:105A900000000001F8018001800180018001800187
:105AA00080018001800180018001800180018001EE
:105AB000800180018001800180018001F81F0000C9
:105AC00000000000000000000000000000000000D6
:105AD00000000000000000000000000000000000C6
