:020000040800F2
:10000000E0060020A1010008551900087D0B00083A
:10001000B11600080D090008412700080000000083
:10002000000000000000000000000000191C000893
:100030001109000800000000691A0008B901000851
:10004000BB010008BB010008BB010008BB010008A0
:10005000BB010008BB010008BB010008BB01000890
:10006000BB010008BB010008BB010008BB01000880
:10007000BB010008BB010008BB010008BB01000870
:10008000BB010008BB010008BB010008BB01000860
:10009000BB010008BB010008BB010008BB01000850
:1000A000BB010008BB010008BB010008BB01000840
:1000B0007D1F0008E91F000801200008BB0100089F
:1000C000BB010008BB010008BB010008BB01000820
:1000D000BB01000831260008BB01000845260008C6
:1000E000BB010008BB010008BB010008F5210008A6
:1000F000BB010008BB010008BB010008BB010008F0
:10010000BB010008BB01000819200008BB01000862
:10011000BB010008BB01000831200008E5200008F1
:10012000BB010008BB010008BB010008BB010008BF
:10013000BB010008BB010008BB010008BB010008AF
:10014000BB010008BB010008BB010008BB0100089F
:10015000BB010008BB010008BB010008BB0100088F
:10016000BB010008BB010008BB010008BB0100087F
:10017000BB010008BB010008BB010008BB0100086F
:10018000BB010008BB010008DFF810D000F020FB25
:10019000004800475D520008AFF30080E0060020F1
:1001A0000648804706480047FEE7FEE7FEE7FEE711
:1001B000FEE7FEE7FEE7FEE7FEE7FEE7F11D0008CB
:1001C000890100082DE9F0410024061B254671F144
:1001D000000605DA01240027D0EB070067EB0101D8
:1001E000161E73F1000605DA0027D2EB070201257F
:1001F00067EB030300F006FA86460E4617469C4658
:10020000AC4204D00025D0EB050E65EB010624B10D
:100210000020D2EB000760EB030C704631463A46F3
:100220006346BDE8F081D2B201E000F8012B491E1F
:10023000FBD270470022F6E710B513460A46044683
:100240001946FFF7F0FF204610BD30B504460020E8
:10025000034600E05B1C934203D2E05CCD5C401B94
:10026000F8D030BD2DE9FE4F804681EA0300C00F73
:100270000C46009021F0004123F00045B8EB02004D
:10028000A94105D24046214690461C460B460246EF
:1002900023F00040104347D0270DC7F30A00C3F3F3
:1002A0000A510290401A019040286BDAC3F3130000
:1002B00040F4801B0098924620B10023D2EB030A41
:1002C00063EB0B0B01985946C0F14002504600F019
:1002D000CAF906460D4650465946019A00F0D2F931
:1002E00010EB08006141002487EA115284EAE773A9
:1002F0001A4340D0009A62B3019A012A4FEA07528A
:1003000015DC001B61EB02014FF0004202EA0752CC
:10031000CDE90042001C41F5801132462B4600F029
:1003200009FA03B0BDE8F08F40462146F9E7001B0B
:1003300061EB0201001C41F5801300185B4120189D
:10034000A2F5001747EB030140EAD570B6196D41DD
:1003500011E06D084FEA360645EAC0754FEA0752CC
:10036000001B61EB0201001C41F5801149084FEAB6
:1003700030000019514132462B4603B0BDE8F04F22
:1003800000F0C9B90098012240000023D0EB02021E
:1003900063EBE073009821464FEAE074B8EB00008D
:1003A00061EB0401E9E783F000435BE781F0004182
:1003B00058E72DE9FE4F81EA030404F0004421F0E0
:1003C000004100944FF0000B23F0004350EA010479
:1003D0005ED052EA03045BD0C3F30A54C1F30A555A
:1003E0002C44A4F2F3340194A0FB0254C1F3130192
:1003F00041F48011C3F3130343F4801301FB02445F
:1004000000FB034E840A970A44EA815447EA835763
:10041000A4FB076802958D0A05FB07854FEA932C1C
:1004200004FB0C542705029D4FEA065847EA16378D
:10043000B5EB08056EEB070C870E920E47EA8117A5
:1004400042EA8312A7FB0201B6EB0B0164EB000446
:100450002B0D43EA0C335E1844EB1C50DA46514630
:10046000E7FB0201C5F313044FEA0B3343EA1453CD
:100470004FEA0432019C43EA0603A4F10C040294FF
:10048000009CCDE900B400F055F903B0BDE8F08F51
:1004900000200146F9E72DE9F04D81EA030404F05C
:1004A000004B21F0004514464FF0000A23F00041B4
:1004B00050EA050220D054EA01021DD0C5F30A57C4
:1004C0000246C5F31303C1F31300C1F30A5640F407
:1004D000801543F48013A7EB0608101BD64608F2DC
:1004E000FD3873EB050002D308F1010801E0921812
:1004F0005B41B8F1000F03DA00200146BDE8F08D42
:1005000000204FF48011064684460EE0171B73EB63
:10051000050705D3121B63EB050306434CEA010CE8
:1005200049084FEA300092185B4150EA0107EDD1CB
:1005300052EA030012D082EA040083EA050108436C
:1005400005D0101BAB4106D20122002306E0002299
:100550004FF0004302E06FF0010253101AEB060067
:100560004CEB085110EB0A0041EB0B01BDE8F04DDC
:1005700000F0D1B800F0004230F000400AD0C10DC8
:1005800001F56071C0F3160042EA0151C20840074C
:1005900011437047002001467047000030B5041E2B
:1005A00071F1000404DB4FF00044404264EB0101B0
:1005B000141E73F1000405DB1C464FF00043524249
:1005C00063EB04038B4208BF824230BD01F000435D
:1005D00030B421F0004150EA010206D00A0DA2F524
:1005E0006072C1F31301002A02DC30BC00207047A6
:1005F000440F44EAC104C100E01830BC00EBC25013
:1006000000F052B82DE9F05F0546002092469B4667
:1006100088460646814640241BE028464146474618
:10062000224600F0E7F853465A46C01A914110D3CB
:1006300011461846224600F016F82D1A67EB0108FD
:100640004F4622460120002100F00DF817EB00096B
:100650004E41201EA4F10104DFDC484631462A4603
:100660004346BDE8F09F202A04DB203A00FA02F15D
:10067000002070479140C2F1200320FA03F3194390
:1006800090407047202A06DBCB17203A41FA02F04F
:1006900043EAE07306E041FA02F3D040C2F12002DF
:1006A00091400843194670470029A8BF7047401C75
:1006B000490008BF20F00100704710B4B0FA80FC78
:1006C00000FA0CF050EA010404BF10BC704749B1B5
:1006D000CCF1200421FA04F411FA0CF118BF012125
:1006E00021430843A3EB0C01CB1D4FEA00614FEA05
:1006F000102042BF002010BC704700EBC3501044D4
:100700000029A4BF10BC7047401C490008BF20F05E
:10071000010010BC704710B5141E73F1000408DA14
:10072000401C41F1000192185B411A4301D120F0B5
:10073000010010BD2DE9F04D92469B4611B1B1FA72
:1007400081F202E0B0FA80F220329046FFF78BFF90
:1007500004460F4640EA0A0041EA0B0153465A4656
:10076000084313D0114653EA010019D0C8F14002E2
:10077000504600F03FF805460E4650465946424660
:10078000FFF771FF084305D0012004E020463946F9
:10079000BDE8F08D0020054346EAE0762C43374360
:1007A0000A986305E40AA0EB08000022FD0A44EA67
:1007B00047540A3002D500200146E9E70105101927
:1007C0006941DDE9084500196941BDE8F04DA2E73E
:1007D000064C074D06E0E06840F0010394E807008E
:1007E00098471034AC42F6D3FFF7D2FC4899000882
:1007F00068990008202A04DB203A21FA02F000213F
:10080000704721FA02F3D040C2F120029140084320
:10081000194670472DE9F04D00231A461B1A8A41EC
:1008200003DB00200146BDE8F08DC1F30A52C1F39D
:10083000130141F480154FF0000BD10702D10018CD
:100840006D41521E0027044640F2FF11384601EB6D
:10085000620A3E468046024600204FF48011FFF7B0
:10086000C9FFC2197141BB1846EB0100B4EB030C80
:1008700075EB000C04D3E41A65EB000517460E4631
:10088000241908F101006D4180463428E3DDF9198F
:1008900046EB0600091BA84103D24FF0FF32134676
:1008A00001E0002213461BEB070046EB0A51BDE8AE
:1008B000F04DFFF730BF70B58C1810F8015B15F0E4
:1008C000070301D110F8013B2A1106D110F8012BC2
:1008D00003E010F8016B01F8016B5B1EF9D12B07E7
:1008E00005D40023521E0DD401F8013BFAE710F89D
:1008F000013BCB1A921C03E013F8015B01F8015B8A
:10090000521EF9D5A142D8D3002070BD00BFFEE72A
:100910007047000000B589B00121022001F0B6F84F
:100920000121084601F0A2F8C020019003208DF8B3
:10093000090002208DF8080001208DF80A008DF8CA
:100940000B0001A9204800F0A1F8022206211E4850
:1009500000F0E4F8022207211B4800F0DFF806A8A7
:1009600001F018FE0020ADF818004FF6FF70079058
:100970000020ADF82000ADF81A0006A9134801F0D8
:10098000C7FD00231A460321104801F070FC03A89C
:1009900001F0D6FC0020ADF8140003A90B4801F0CB
:1009A00098FC0121094801F041FC01221146074849
:1009B00001F0CFFC0021054801F07BFD0121034837
:1009C00001F03AFC09B000BD000002400004004004
:1009D00000B589B00121042001F058F8012102205E
:1009E00001F044F8C020019003208DF80900022096
:1009F0008DF8080001208DF80A008DF80B0001A980
:100A0000204800F043F8022206211E4800F086F834
:100A1000022207211B4800F081F806A801F0BAFD68
:100A20000020ADF818004FF6FF7007900020ADF8D9
:100A30002000ADF81A0006A9134801F069FD002353
:100A40001A460321104801F012FC03A801F078FCBB
:100A50000020ADF8140003A90B4801F03AFC012175
:100A6000094801F0E3FB01221146074801F071FC3F
:100A70000021054801F01DFD0121034801F0DCFBC8
:100A800009B000BD0004024000080040F0B50A466D
:100A900000210023002400BF3DE0012505FA01F3F9
:100AA000156805EA03049C4234D105684F0003260B
:100AB000BE40B543056015794E00B5400668354324
:100AC00005601579012D02D01579022D16D18568A2
:100AD0004F000326BE40B543856055794E00B540B2
:100AE000866835438560456801268E40B54345607C
:100AF000456896798E40B6B235434560C5684F006B
:100B00000326BE40B543C560D5794E00B540C668E2
:100B10003543C560491C1029BFD3F0BDF0B5002393
:100B200000244D07ED0E02FA05F3CE1000F120056A
:100B300055F826504E07F70E0F26BE40B543CF108E
:100B400000F1200646F82750CE1000F1200555F898
:100B5000265045EA0304CE1000F1200545F8264052
:100B6000F0BD0246002013690B400BB1012000E0EC
:100B700000207047418370470183704700BFFEE744
:100B800010B500200F4908600F48006820F440208D
:100B90000D4908600846006840F480200860002085
:100BA0000A49C1F8A402022002F028FE01200549EA
:100BB0000860022002F022FE00200449C1F8A002D1
:100BC00010BD0000A082404200040240008040426C
:100BD0001CB50121022000F049FF4FF44070009045
:100BE00001208DF8040000208DF8060003208DF808
:100BF000050001208DF8070069460548FFF746FF0C
:100C00000120044908600449C1F8A4021CBD000089
:100C100000040240A08240420080404210B5002003
:100C20000F4908600F48006820F440200D49086013
:100C30000846006840F48020086001200A49C1F895
:100C4000A402022002F0DAFD01200549086002201A
:100C500002F0D4FD00200449C1F8A00210BD00003C
:100C6000A0824042000402400080404270B5054628
:100C700000241648006820F4402014490860084603
:100C800000680860002616E0002011490860022074
:100C900002F0B4FD01200F49C1F8A0026006040E65
:100CA0000B487C38006808B1601CC4B2012002F017
:100CB000A5FD701CC6B2082EE6DB15B9FFF7AEFF26
:100CC00001E0FFF75DFF204670BD00000004024018
:100CD000A08240420080404270B50446154800683A
:100CE00020F44020134908600846006840F4802042
:100CF0000860002010490860002517E0E0090E494F
:100D0000091D08606006040E022002F077FD012034
:100D10000A49C1F8A002022002F070FD0020064935
:100D20000860022002F06AFD681CC5B2082DE5DBF0
:100D300070BD000000040240A0824042008040429A
:100D400010B50F48006820F440200D49086008469F
:100D5000006840F48020086001200A4908600A49C0
:100D6000C1F8A002042002F049FD002005490860F6
:100D7000042002F043FD00200349C1F8A00210BD89
:100D800000040240A48240420080404210B50F4857
:100D9000006820F440200D4908600846006840F4CF
:100DA0008020086000200A4908600A49C1F8A402AE
:100DB000042002F023FD0120054908600549C1F81F
:100DC000A402042002F01AFD10BD0000000402403D
:100DD000A08240420080404210B5002413480068C1
:100DE00020F440201149086008460068086001208E
:100DF0000F49086002F002FD01200E49C1F8A0026F
:100E000002F0FCFC07E0601CC4B2FA2C03DDFFF723
:100E1000BDFF012010BD0648803800680028F2D1CF
:100E20000349091F086000BFF4E700000004024006
:100E3000A4824042008040421CB50121084600F0D7
:100E400015FE00208DF8040002208DF80500012019
:100E50008DF80700002409E0064850F824000090AF
:100E600069460548FFF712FE601CC4B2022CF3DB92
:100E70001CBD000034000020000002402DE9F041BC
:100E800004460D4616461F462A2000F087FAA11C8C
:100E900088B200F074FAB11C88B200F070FA2B200E
:100EA00000F07CFAE91C88B200F069FAF91C88B2FB
:100EB00000F065FA2C2000F071FABDE8F08108B569
:100EC0004FF6FF7080231A4600210090084600F07C
:100ED0000FF808BD70B504460D4616462B4622464F
:100EE00029462046FFF7CAFF304600F048FA70BD99
:100EF0002DE9F04706460F4614461D46DDF820A0B2
:100F0000681E83B2601E82B239463046FFF7B6FFD4
:100F1000B8460EE0B14606E0504600F030FA09F15E
:100F200001001FFA80F9A145F6DB08F101001FFA64
:100F300080F8A845EEDBBDE8F08700001CB5012174
:100F4000082000F093FD5F20009001208DF8040040
:100F500000208DF8060002208DF80500694604483F
:100F6000FFF794FD5F210248FFF706FE1CBD00005D
:100F7000000C024010B5FFF7E1FF10217A48FFF79F
:100F8000F9FD642002F01EFC10217748FFF7F4FD04
:100F9000642002F017FC08217348FFF7EDFD642080
:100FA00002F010FC112000F0F9F9782002F00AFCA0
:100FB000B12000F0F3F9022000F0EAF9352000F04A
:100FC000E7F9362000F0E4F9B22000F0E7F902205A
:100FD00000F0DEF9352000F0DBF9362000F0D8F91A
:100FE000B32000F0DBF9022000F0D2F9352000F048
:100FF000CFF9362000F0CCF9022000F0C9F93520F5
:1010000000F0C6F9362000F0C3F9B42000F0C6F9AC
:10101000032000F0BDF9C02000F0C0F9A22000F0CC
:10102000B7F9022000F0B4F9842000F0B1F9C12032
:1010300000F0B4F9C52000F0ABF9C22000F0AEF921
:101040000D2000F0A5F9002000F0A2F9C32000F067
:10105000A5F98D2000F09CF92A2000F099F9C42010
:1010600000F09CF98D2000F093F9EE2000F090F94B
:10107000C52000F093F90A2000F08AF9362000F02C
:101080008DF9C82000F084F9E02000F087F91220E3
:1010900000F07EF91C2000F07BF9102000F078F9B8
:1010A000182000F075F9332000F072F92C2000F0C0
:1010B0006FF9252000F06CF9282000F069F928204C
:1010C00000F066F9272000F063F92F2000F060F9A6
:1010D0003C2000F05DF9002000F05AF9032000F0F8
:1010E00057F9032000F054F9102000F051F9E120E5
:1010F00000F054F9122000F04BF91C2000F048F9E0
:10110000102000F045F9182000F042F92D2000F0E1
:101110003FF9282000F03CF9232000F039F928207D
:1011200000F036F9282000F033F9262000F030F9DD
:101130002F2000F02DF93B2000F02AF9002000F0CC
:1011400027F9032000F024F9032000F021F91020F2
:1011500000F01EF93A2000F021F9052000F018F9FE
:10116000292000F01BF910BD000C02402DE9FF4FB3
:1011700083B005468A461746119CAB46204604EBD1
:10118000D071C1F347063046F11706EB5171C91013
:10119000614389B20191A7F12000C7B20AEB0400B4
:1011A000401E83B2A819401E82B251462846FFF75E
:1011B00065FE4FF000094AE0102C06D1264800EBEE
:1011C000071010F8090002900BE0202C06D12348EC
:1011D00000EB871010F80900029002E007B0BDE8AC
:1011E000F08F4FF000082AE0129868B9012000FA49
:1011F00008F00299084018B1069800F0C0F81AE00B
:10120000109800F0BCF816E0012000FA08F00299EE
:10121000084020B151462846069AFFF75BFE681C3D
:1012200085B2A5EB0B00B04205D15D460AF1010085
:101230001FFA80FA06E008F1010000F0FF08B8F19B
:10124000080FD1DB00BF09F101001FFA80F90198F6
:101250008145B1DB00BFC1E768690008586F00082D
:101260002DE9FF4F2DED020B2DED028B83B00746CC
:10127000B0EE408A1546DDE91486304606EBD071A3
:10128000C1F34709B5EEC08AF1EE10FA10D2002082
:10129000CDE9008602902D2238460A9B0899FFF777
:1012A00065FF07EB090087B2B1EE480AB0EE408A4D
:1012B0009FED210A28EE000ABCEEC00A10EE10AA2B
:1012C000002430E0281B401EC1B20A2005F0F2F9CC
:1012D000BAFBF0F00A21B0FBF1F201FB120BA81EE1
:1012E000A04210D10020A91E01FB0971CDE90086A2
:1012F000029088B22E220A9B0899FFF737FF601CE4
:10130000C4B2681CC5B200200BF13001CAB204FBA4
:101310000971CDE90086029088B20A9B0899FFF70F
:1013200025FF601CC4B2AC42CCDB03B0BDEC028B29
:1013300006B0BDE8F08F00000000C8422DE9FE4F66
:1013400006460F4614469846DDE90D5ADDF8309002
:1013500010E0CDE9015ACDF8009022784346394695
:101360003046FFF703FF284605EBD07106EB61011D
:101370008EB2641C20780028EBD1BDE8FE8F10B53A
:101380000446201200F01AF8E0B200F017F810BD81
:1013900010B50446204600F011F810BD10B5044603
:1013A00040210548FFF7E6FB204600F007F8402102
:1013B0000148FFF7E1FB10BD000C024070B5044688
:1013C00002211248FFF7D6FB002517E001210F4844
:1013D000FFF7D0FB04F0800020B104210B48FFF799
:1013E000CBFB03E004210948FFF7C4FB01210748B8
:1013F000FFF7C2FB6006040E681CC5B2082DE5DBD2
:1014000002210248FFF7B8FB70BD0000000C02404B
:101410001CB50121042000F029FB01208DF80400F7
:1014200000208DF8060001208DF8070000208DF8BF
:1014300005004FF40050009069460448FFF726FB72
:101440004FF400510148FFF795FB1CBD0008024016
:1014500010B5FFF7BDFB80216B2000F0D7F86420AA
:1014600002F0B0F900216B2000F0D0F8032000F06A
:101470008BF8002000F080F8322000F0AAF800215C
:10148000382000F0C3F800216A2000F0BFF80021E6
:10149000232000F0BBF88021372000F0B7F875203A
:1014A00000F013F80446682C0BD101216B2000F0EA
:1014B000ADF800216C2000F0A9F8322000F089F886
:1014C00001E0012010BD0020FCE770B50446FFF7E5
:1014D00037FCD020FFF700FCFFF77EFC2046FFF72B
:1014E000FBFBFFF779FCFFF72BFCD120FFF7F4FBA8
:1014F000FFF772FC0020FFF7B9FB0546FFF746FC3B
:10150000284670BD2DE9F04106460F4614461D469B
:10151000FFF716FC002141EA4601C8B2FFF7DCFBE9
:10152000FFF75AFC20B1FFF731FC0120BDE8F08144
:101530003846FFF7D1FBFFF74FFCFFF701FC012115
:1015400001EB4601C8B2FFF7C7FBFFF745FC0DE012
:10155000012C04D10020FFF789FB287003E0012053
:10156000FFF784FB2870601EC4B26D1C002CEFD105
:10157000FFF70CFC0020D9E710B50446E006010E89
:101580001C2000F043F810BD10B50446E006010E23
:101590001B2000F03BF810BD70B504460025BC2CA4
:1015A00001DB012510E0622C01DB02250CE02A2C76
:1015B00001DB032508E0142C01DB042504E00A2CE0
:1015C00001DB052500E0062529461A2000F01EF85B
:1015D00070BD70B50446B4F57A7F01DD4FF47A74BE
:1015E000042C00DA04244FF47A7090FBF4F0401ECF
:1015F000C5B22946192000F009F80546264604EB35
:10160000D671C1F34F00FFF7C7FF70BD70B5054637
:101610000C46FFF795FBD020FFF75EFBFFF7DCFBE6
:1016200018B1FFF7B3FB012070BD2846FFF754FB4C
:10163000FFF7D2FB2046FFF74FFBFFF7CDFB18B1BA
:10164000FFF7A4FB0120EFE7FFF7A0FB0020EBE78B
:101650002DE9F04105460E4617469846FFF770FB08
:10166000002141EA4501C8B2FFF736FBFFF7B4FBA2
:1016700020B1FFF78BFB0120BDE8F0813046FFF77A
:101680002BFBFFF7A9FB00240CE018F80400FFF780
:1016900023FBFFF7A1FB18B1FFF778FB0120EBE775
:1016A000601CC4B2BC42F0DBFFF770FB0020E3E734
:1016B00000BFFEE710B5FFF702FC00F093F910BD84
:1016C00010B507480078002806DD00F0CDF800F0DE
:1016D00021F900200249087000F082F810BD0000D6
:1016E00057000020FEB504460D4617461E467EB93B
:1016F000002010214FF6FF72CDE90021029002EA8E
:10170000051102EAC40000233A46FFF72FFD0FE05F
:10171000002010211F22CDE9002102904FF6FF7218
:1017200002EA051102EAC40013463A46FFF71EFD1D
:10173000FEBD70B52DED028B82B004460D46B0EEB5
:10174000408A16468EB910204FF6FF71CDE9001081
:1017500001EA05114FF6FF7202EAC40000230622D7
:10176000B0EE480AFFF77CFD0FE010201F214FF676
:10177000FF72CDE9001002EA051102EAC400134627
:101780000622B0EE480AFFF76BFD02B0BDEC028BFB
:1017900070BDFEB504460D4617461E467EB90020B4
:1017A00010214FF6FF72CDE90021029002EA0511E7
:1017B00002EAC40000233A46FFF7C0FD0FE0002014
:1017C00010211F22CDE9002102904FF6FF7202EA9C
:1017D000051102EAC40013463A46FFF7AFFDFEBD0D
:1017E00010B51C481C49097800EB41104069D0ED48
:1017F000000AB0EE600A002202210920FFF799FFDB
:10180000002424E013481449097800EB4110806952
:1018100004EB840110F82100C0B1E01C81B2002368
:101820000EA20920FFF7B5FF0A480B4A127800EB19
:101830004210C06950F82400D0ED000AB0EE600AF2
:10184000E01C81B200220920FFF773FF641C052C05
:10185000D8DB10BD5C020020580000202020202092
:10186000202020200000000038B54FF6FF708023B4
:101870001A46002100900846FFF73AFB214822490A
:10188000097800EB4112002319460120FFF781FF80
:1018900000231EA202210120FFF77BFF00242DE080
:1018A00018481949097800EB4110806904EB84015C
:1018B00010F8210008B31348134B1B7800EB4310BA
:1018C000806904EB840300EB8302E01C81B20023F7
:1018D0000120FFF75EFF0B480B4A127800EB421025
:1018E000C06950F82400D0ED000AB0EE600AE01C98
:1018F00081B200220920FFF71CFF641C052CCFDBFE
:1019000038BD00005C020020580000205374657050
:10191000203D000010B5002406E0A1B200232022E3
:101920001846FFF7DFFE641C082CF6DB0848007839
:10193000072802DD072006490870054800780228BC
:1019400002DA02200249087003F0DCF910BD000041
:10195000560000207047000070B5002100230F22C0
:10196000C4781CB3174C246804F4E064C4F5E06444
:10197000C4F30721C1F10404E3B20A4144789C4056
:10198000E1B28478144021430C07210E0E4C0578F7
:101990006155047804F01F050124AC4005786D11F1
:1019A000AD0005F1E025C5F8004109E0047804F038
:1019B0001F050124AC40054D0678761145F82640F8
:1019C00070BD00000CED00E000E400E080E100E00C
:1019D00002490143024A1160704700000000FA0505
:1019E0000CED00E010B515481549486115A11448E3
:1019F00000F0B8FE1548124988616430C8610F498B
:101A00000F48416312A1203000F0ACFE12490C488F
:101A1000816301F164000A49C863084908484165C7
:101A20000EA1403000F09EFE0E490548816501F18F
:101A300064000349C865FFF717FF10BD740000205C
:101A40005C0200205061676520310000900000209A
:101A50005061676520320000080100205061676511
:101A600020330000800100207047000029B1064AA1
:101A700012680243044B1A6004E0034A126882436E
:101A8000014B1A60704700003038024029B1064A05
:101A900012680243044B1A6004E0034A126882434E
:101AA000014B1A60704700004038024029B1064AD5
:101AB00012680243044B1A6004E0034A126882432E
:101AC000014B1A607047000044380240F0B5002115
:101AD00000220024022500260223324F3F6807F02F
:101AE0000C0121B1042905D0082937D105E02E4F7A
:101AF000076036E02D4F076033E02A4F3F1F3F68F5
:101B0000C7F38056274F3F1F3F6807F03F036EB172
:101B1000264FB7FBF3F7DFF88CC0ACF1040CDCF810
:101B200000C0CCF3881C07FB0CF40CE01E4FB7FB85
:101B3000F3F7DFF870C0ACF1040CDCF800C0CCF3B4
:101B4000881C07FB0CF4174F3F1F3F68C7F3014782
:101B50007F1C7D00B4FBF5F7076002E0124F0760C1
:101B600000BF00BF0F4F3F6807F0F0010909104F99
:101B70007A5C0768D74047600A4F3F6807F4E05136
:101B8000890A0B4F7A5C4768D7408760054F3F68EA
:101B900007F46041490B064F7A5C4768D740C7603D
:101BA000F0BD0000083802400024F40000127A0062
:101BB000240000200146022906D003290DD0042963
:101BC00012D005291ED116E04FF08042526A10B2A1
:101BD00000224FF080435A6216E00C4A126810B29D
:101BE00000220A4B1A600FE0094A126810B2002264
:101BF000074B1A6008E0074A126810B20022054B32
:101C00001A6001E0002000BF00BF704724040040BC
:101C100024080040240C0040704700000CB5002050
:101C2000019000903448006840F4803032490860E8
:101C300000BF3148006800F4003000900198401C5B
:101C40000190009818B90198B0F5A04FF1D12A4839
:101C5000006800F4003010B10120009001E0002085
:101C600000900098012846D123484030006840F099
:101C700080502149403108602048006840F44040CD
:101C80001E4908601C48083000681B49083108607C
:101C90000846006840F4004008600846006840F4C8
:101CA000A05008601648091F0860081F006840F02F
:101CB0008070091F086000BF0F48006800F00070C6
:101CC0000028F9D040F205700E4908600A48083033
:101CD000006820F0030008490831086008460068E1
:101CE00040F00200086000BF03480830006800F0C0
:101CF0000C000828F8D10CBD0038024000700040EC
:101D000008544007003C0240042808D14FF0E0216D
:101D1000096941F004014FF0E022116107E04FF042
:101D2000E021096921F004014FF0E02211617047C0
:101D300070B500200022022300240221274D2D68C7
:101D400005F00C0020B1042806D0082834D107E0A3
:101D5000234D244E356033E0234D224E35602FE075
:101D60001E4D2D1F2D68C5F380541C4D2D1F2D6851
:101D700005F03F0154B11C4DB5FBF1F5174E361F70
:101D80003668C6F3881605FB06F209E0144DB5FB6C
:101D9000F1F5124E361F3668C6F3881605FB06F2BB
:101DA0000E4D2D1F2D68C5F301456D1C6B00B2FB58
:101DB000F3F50C4E356003E0094D0A4E356000BF67
:101DC00000BF064D2D68C5F30315084E705D054D27
:101DD0002D68C540034E356070BD000008380240D4
:101DE0000024F4000000002000127A00040000200B
:101DF00010B51548006840F4700013490860134896
:101E0000006840F001001149086000200F490831C6
:101E100008600E4800680E4908400C4908600D48EB
:101E2000091D0860081F006820F48020091F086051
:101E3000002006490C310860FFF7F0FE4FF000600B
:101E400001498039086010BD88ED00E0003802408B
:101E5000FFFFF6FE10300024F0B50C4615460021B9
:101E60000022068C4FF6FE773E400684018B028CE2
:101E70004FF60C7631407E1C06EA03162E433143A2
:101E80004FF6F576324044F0010632430183028476
:101E9000F0BDF0B50C461546002100220026078C47
:101EA0004FF6EF7C07EA0C070784018B028C4FF694
:101EB000FF7707EA041640F6FF4739404FF6FF77F1
:101EC00007EA033739434FF6FF7707EA0527394317
:101ED0004FF65F773A4046F010073A430183028499
:101EE000F0BDF0B50C461546002100220026078CF7
:101EF0004FF6FF6C07EA0C070784818B028C4FF6C4
:101F0000FF7707EA04264FF60C7739404FF6FF7744
:101F100007EA03172F4339434FF2FF573A4046F47D
:101F200080773A4381830284F0BDF0B50C461546B4
:101F3000002100220026078C4EF6FF7C07EA0C07E2
:101F40000784818B028C4FF6FF7707EA043640F650
:101F5000FF4739404FF6FF7707EA052739434FF629
:101F6000FF7707EA0337394345F6FF773A4046F4EF
:101F700080573A4381830284F0BD000010B50121EF
:101F8000880700F095F940B10121880700F051F968
:101F900002480068401C0149086010BD2000002074
:101FA0000EB501210846FFF771FD0E4A07CA8DE8FC
:101FB000070069464FF0804000F0AAFA012211465E
:101FC000900700F0C6F91C200121814042099200CF
:101FD00002F1E022C2F8001100BF0121880700F0E1
:101FE0002BF90EBD5C69000804480088034800888E
:101FF00020F00100014908807047000010040040F3
:10200000044800880348008820F001000149088046
:10201000704700001008004004480088034800880A
:1020200020F001000149088070470000100C0040BA
:1020300010B50121054800F03BF928B102F048FF36
:102040000121024800F0F5F810BD0000001000402A
:10205000F0B589B0044601211020FFF717FD01A853
:10206000FFF734FD039DDDE90201B0FBF1F001282B
:1020700000D96D0000BF4FF47A70B5FBF0F0471E39
:102080004FF47A7060434FF47A71B0FBF1F0461E62
:102090000796B8B2ADF818000020ADF81A00ADF8F8
:1020A000200006A90E4800F033FA012211460C4820
:1020B00000F04FF901210A4800F0BEF836208DF8F3
:1020C000140001208DF8150000208DF81600012065
:1020D0008DF8170005A8FFF73FFC09B0F0BD000020
:1020E0000010004010B50121164800F0E1F840B39F
:1020F0000121144800F09DF80320FFF75BFD00EE7E
:10210000100AB8EEC00A104880ED000A0420FFF75C
:1021100051FD00EE100AB8EEC00A0C4880ED000A2E
:1021200090ED000ABDEEC00A10EE100A01B206489A
:1021300090ED000ABDEEC00A10EE100A00B201F0E8
:10214000C7FA10BD001400404000002044000020E9
:102150002DE9F04188B0074601212020FFF796FCC9
:102160006846FFF7B3FC029EDDE90101B0FBF1F028
:10217000012800D9760042F210784046B6FBF0F014
:10218000441E404678434FF47A71B0FBF1F0451E8F
:10219000B4F5803F02D2B5F5803F01D300BFFEE722
:1021A0000695A0B2ADF814000020ADF81600ADF809
:1021B0001C0005A90E4800F0ABF9012211460C489D
:1021C00000F0C7F801210A4800F036F837208DF8F2
:1021D000100003208DF811008DF8120001208DF8F9
:1021E000130004A8FFF7B8FB08B0BDE8F0810000B9
:1021F00000140040044800880348008820F00100D3
:102200000149088070470000101800400A884B8878
:102210001A438B881A43CB881A430B891A434B897C
:102220001A438B891A43A0F844207047CA4302829C
:102230007047CA430282704721B1028842F001020E
:10224000028004E002884FF6FE731A400280704755
:1022500031B1B0F8442042F40042A0F8442005E037
:10226000B0F84420C2F30E02A0F844207047F0B545
:102270000C4615461E460021002200230189028BD0
:10228000038C4FF6F877394021434FF6FC473A402C
:1022900040F201173A434FF6DD773B404FF6FF77A8
:1022A00007EA06172F433B43018102830384F0BDF5
:1022B00030B50246002000230024158A05EA0103F8
:1022C000958905EA010413B10CB1012000E000205A
:1022D00030BD70B505460C46208850B92389A288C8
:1022E00061882846FFF7B8FDE188284600F0E3F84A
:1022F00025E0208804280AD12389A28861882846FD
:10230000FFF7C7FDE188284600F0DEF817E02088D7
:1023100008280AD12389A28861882846FFF7E1FDB1
:10232000E188284600F0DDF809E02389A288618869
:102330002846FFF7FAFDE188284600F0DBF870BD7B
:10234000002101804180012181800021C180018123
:1023500070471AB183890B43838102E083898B43E1
:102360008381704770B5002400220023058C4FF64E
:10237000FE7635400584028C8388048B4FF68F757A
:102380002C40B51E2C400D882C43751E2A408D898B
:102390002A434D882A43104DA84202D00F4DA8422F
:1023A00013D14FF6F7752A40CD892A434FF6FB75B6
:1023B0002A408D882A434FF6FF652B404FF6FF5584
:1023C0002B400D8A2B434D8A2B43838004838D68D9
:1023D0004563028470BD000000000140000401401C
:1023E0000A460021018B4FF6F77319401143018310
:1023F0007047000070B5002400220023058C4FF6C2
:10240000EF7635400584028C8388048B48F6FF758F
:102410002C404FF6FF452C400D884FF6FF7606EA1C
:1024200005252C434FF6DF752A408D8906EA0515F0
:102430002A434D8806EA05152A43154DA84202D0C5
:10244000144DA8421DD14FF67F752A40CD894FF615
:10245000FF7606EA05152A434FF6BF752A408D8898
:1024600006EA05152A434FF6FF352B404FF2FF755C
:102470002B400D8A06EA85052B434D8A06EA850521
:102480002B43838004838D688563028470BD0000C4
:1024900000000140000401400A460021018B4FF278
:1024A000FF7319404FF6FF7303EA022319430183B8
:1024B000704741627047028B4FF6F3731A400283F4
:1024C000028B0A4302837047028B4FF2FF331A409C
:1024D0000283028B4FF6FF7303EA01231A43028340
:1024E0007047828B4FF6F3731A408283828B0A43C4
:1024F00082837047828B4FF2FF331A408283828B34
:102500004FF6FF7303EA01231A43828370470000EA
:1025100000220288184B98420ED0184B98420BD0DC
:10252000B0F1804F08D0164B984205D0154B984219
:1025300002D0154B984204D14FF68F731A404B8846
:102540001A43124B984207D0114B984204D04FF6D1
:10255000FF431A400B891A4302804B68C3620B8801
:102560000385054B984202D0044B984201D18B7AE7
:10257000038601238382704700000140000401406C
:102580000004004000080040000C00400010004023
:10259000001400404FF0FF314160002101800181B3
:1025A00041808172704700000748007807280ADAE6
:1025B00005480078401C0449087000200349087051
:1025C0000120034908707047560000205500002084
:1025D000570000200748007802280ADD05480078E7
:1025E000401E044908700020034908700120034977
:1025F000087070475600002055000020570000204A
:1026000008480078401C032190FBF1F201FB120006
:10261000044908700020044908700120034908702B
:10262000704700005800002055000020570000208F
:1026300010B540F22551024800F058F810BD0000D6
:102640000010014070B52648008800F020000028E6
:1026500044D02348001D0088C4B2AA2C0BD12148C5
:10266000007840B91F4801780078401C1D4A10705E
:102670001D48445431E01B48007800282DDD1948DE
:1026800001780078401C174A1070174844541046CF
:102690000078022821DD1448457810460178681D2D
:1026A000814219D129461048801C01F003F80646E2
:1026B0000D49A81C085CB0420AD10A480078401EA7
:1026C000085C552804D129460748801C03F0FDFF0B
:1026D00000200449087000BF00BF00BF70BD0000AB
:1026E000004800402D020020CC02002070B50246B8
:1026F000002400230025002040F66A16B14200D1D4
:1027000000BFC1F3421501F01F03012606FA03F3CF
:10271000012D02D19689334006E0022D02D1168A9E
:10272000334001E0968A33400C12012606FA04F485
:102730001688344013B10CB1012000E0002070BDB8
:1027400000BFFEE70FB4054B10B503A9044A029879
:1027500000F018FD10BC5DF814FB00008144000877
:10276000180000200FB4084B10B504A902AA039862
:1027700000F008FD044602A9002000F02EFF2046CC
:1027800010BC5DF814FB0000DB35000803B40198B1
:102790004100009850EAC12018BF04204A0D18BF1C
:1027A00040F0010040F2FF72B2EB515F08BF40F011
:1027B0000200012808BF052002B070470000000099
:1027C00070B5C1482DED020B2DED0E8B82B0119D21
:1027D00025F000449FEDBEDB9FEDBFEB84423EDB66
:1027E000A4F140511098A1F17F6108430FD0BC487B
:1027F000844202DC28D1109830B39DED100B02B05A
:10280000BDEC0E8B02B0BDE8704000F071BC9DEDD8
:10281000100B53EC1D2B51EC100BFDF7CAFD9DED79
:10282000100B41EC180B53EC1E2B51EC100BFDF769
:10283000C0FD53EC182BFDF715FD41EC100B02B059
:10284000BDEC0E8B02B070BD012000F095FC02B013
:10285000BDEC0E8B02B0BDE8704000F05DBCA1483D
:102860009FEDA18B844256DA9DED100BB4F1795F98
:102870000ADA51EC100BFFF789FF042808BF00F0BB
:102880005BFC9DED100BDAE753EC102B51EC100BB9
:10289000FDF78FFD41EC190B95480621B0EE490A72
:1028A000F0EE690A784400F0A7FB53EC192B51ECC9
:1028B000100BFDF77EFD41EC1A0B8E48B0EE490A75
:1028C000F0EE690A0421784400F096FB53EC192BD2
:1028D00051EC100BFDF76DFD53EC182BFDF7C2FC0E
:1028E00041EC100B51EC1A0B53EC102BFDF7D3FD00
:1028F000CDE900019DED000B53EC102B9DED100B6D
:1029000051EC100BFDF755FD9DED101B53EC112BF9
:10291000FDF7A8FCD2E09DED100B51EC100B01F07F
:10292000A3FD53EC182BFDF741FD9FED730BCDE993
:10293000000153EC102B9DED000B51EC100BFDF73B
:1029400038FD41EC190B6E480621B0EE490AF0EE55
:10295000690A784400F050FB53EC192B51EC100B32
:10296000FDF727FD41EC1B0B6648B0EE490AF0EE7F
:10297000690A0421784400F03FFB53EC192B51EC19
:10298000100BFDF716FD53EC182BFDF76BFC41EC1B
:102990001C0B51EC190B03F063FF41EC180B5A4868
:1029A0009FED5BABA04222DC53EC1C2B51EC1B0BCC
:1029B000FDF771FDCDE900019DED000B51EC180B09
:1029C00053EC102BFDF7F5FC53EC182BFDF74AFCEC
:1029D00053EC1A2BFDF7EDFC53EC1D2BFDF7E3FC3C
:1029E00053EC1E2BFDF7E2FC41EC100B5FE08DED8C
:1029F000008B002000909DED000B51EC180B53EC68
:102A0000102BFDF72FFC9DED000B41EC1E0B53EC42
:102A1000102B51EC100BFDF7CCFC53EC192BFDF7F0
:102A2000C5FC53EC1E2BFDF736FD41EC190B53ECA6
:102A30001C2B51EC1B0BFDF72EFD41EC1B0B53EC3B
:102A40001A2B51EC190BFDF7B4FC53EC1D2BFDF7C1
:102A5000ADFC41EC190B53EC1A2B51EC180BFDF7A4
:102A6000A8FC53EC1B2BFDF7A4FC53EC192BFDF732
:102A70009AFC9DED000B41EC180B53EC1A2B51EC1A
:102A8000100BFDF796FC9FED249B53EC192BFDF7E3
:102A90008DFC41EC100B51EC180B53EC102BFDF797
:102AA00082FC53EC192BFDF781FC41EC100B002D3F
:102AB0003FF7C5AE51EC100B81F0004141EC100B1B
:102AC000BDE60000000000000000F03F0000000034
:102AD000075C143326A6913C182D4454FB21F93F82
:102AE0000000F07F0000E03F000000000000F03F29
:102AF000606F00006E6F0000000000000000E03F0B
:102B0000B26E0000C06E00003333EF3F00000000E3
:102B10000000000000000040182D4454FB21E93F54
:102B200070B59B482DED020B2DED068B079D25F012
:102B30000044A04218DC9748844202DC0AD106987F
:102B400040B19DED060BBDEC068B02B0BDE87040B8
:102B500000F0CEBA002DCCBF9FED8F0B9FED900BF8
:102B6000BDEC068B02B070BD8F48A04215DD8F48CA
:102B7000A042D8BF4FF0FF3458DD9DED060B51EC5D
:102B8000100BFFF703FE042808BF00F0D5FA9DEDF7
:102B9000060BBDEC068B02B070BD9DED060B51EC33
:102BA000100B01F061FCCDE9060181489FED828B9D
:102BB000A0423CDD8248A0421FDD00249FED82AB95
:102BC0009DED060B53EC1A2B51EC100BFDF74AFB55
:102BD0009DED060B41EC190B53EC1A2B51EC100B2D
:102BE000FDF7E7FB53EC182BFDF7DDFB53EC192B3E
:102BF000FDF751FCCDE9060149E09DED060B0124EE
:102C000053EC182B51EC100BFDF72CFB9DED060B34
:102C100041EC190B53EC182B51EC100BFDF7C3FBD7
:102C200053EC192BFDF737FCCDE906012FE068487E
:102C3000A0421FDD02249FED689B9DED060B53EC27
:102C4000192B51EC100BFDF7B4FB53EC182BFDF7CF
:102C500009FB9DED060B41EC180B53EC192B51ECC5
:102C6000100BFDF7A0FB53EC182BFDF714FCCDE97E
:102C700006010CE09DED060B032453EC102B9FED99
:102C8000580B51EC100BFDF706FCCDE906019DED4C
:102C9000060B53EC102B51EC100BFDF78AFB41ECAB
:102CA000180B53EC182BFDF784FB41EC190B4E4825
:102CB0000621B0EE490AF0EE690A784400F09CF96A
:102CC00053EC182B51EC100BFDF773FB41EC180B78
:102CD0004648B0EE490AF0EE690A0521784400F052
:102CE0008BF953EC192B51EC100BFDF762FB41EC07
:102CF000100B51EC180B53EC102B002C0EDAFDF7D7
:102D0000B1FA9DED061B53EC112BFDF752FB9DED27
:102D1000061B53EC112BFDF749FB35E0FDF7A2FA3A
:102D20009DED061B53EC112BFDF743FB41EC100B03
:102D30002F48784400EBC40090ED001B51EC100BC1
:102D400053EC112BFDF72FFB9DED061B53EC112BC4
:102D5000FDF729FB41EC100B2648784400EBC4003A
:102D600090ED001B51EC100B53EC112BFDF71EFBEB
:102D700041EC100B002DA2BFBDEC068B02B070BD64
:102D800051EC100B81F0004141EC100B01E7000009
:102D9000000010440000F07F182D4454FB21F93F3F
:102DA000182D4454FB21F9BF0000DC3F0000203EF9
:102DB0000000F33F00000000000000000000F03FB2
:102DC0000000E63F0000000000000000000000409E
:102DD0000080034000000000000000000000F83FF9
:102DE000000000000000F0BF026C0000B86B0000A3
:102DF000426B0000FA6A000070B56F4E2DED040BB7
:102E00002DED048B82B0DDF824C0DDE907235C42A0
:102E10002CF000411C4341EAD474069D22F000408E
:102E2000B44205D86C422C4340EAD474B4420BD966
:102E30009DED081B9DED060B02B0BDEC048B04B0AC
:102E4000BDE8704000F05EB9ACF14054A4F17F647D
:102E50001C430BD0022404EAAC7444EAD274054348
:102E60009FED578B9FED582B07D015E09DED060B7E
:102E700051EC100B00F016FC42E0002C11BF012CAD
:102E80009DED060B02B0BDEC048B04BF04B070BD19
:102E9000022C38D0032C3BD00B439FED4D1B9FEDF4
:102EA0004E0B0AD0B14218D1B04209D121F0804175
:102EB00020F08040099107900FE0002A15DA10E019
:102EC000474B7B44002C08BF93ED000B0DD0012C29
:102ED00010D0022C17D0032C1AD0B0421DD1002ADA
:102EE00003DAB0EE410AF0EE610A02B0BDEC048BE9
:102EF00004B070BD93ED000B51EC100B81F000415C
:102F000041EC100BF1E7B0EE480AF0EE680AECE78E
:102F1000B0EE420AF0EE620AE7E7401A00159FEDB4
:102F2000329B3C28C8BF8DED000B17DCBCF1000FB5
:102F3000BCBF10F13C0F8DED009B0FDB9DED080B2E
:102F400053EC102B9DED060B51EC100BFDF7A3FA83
:102F500001F08AFA00F0A6FBCDE90001B4B1012C22
:102F600010D0022C9FED220B53EC102B9DED000B8B
:102F700051EC100B19D0FDF716FA53EC182BFDF796
:102F800012FABDE7019880F0004001909DED000B22
:102F900053EC192B51EC100BFDF700FB04BF022082
:102FA00000F0EAF89DED000B9FE7FDF7FCF953EC0C
:102FB000182BFDF7FBF9A3E70000F07F00000000ED
:102FC000182D4454FB210940182D4454FB2109C0FD
:102FD000182D4454FB21F9BF182D4454FB21F93F0F
:102FE0002A6A00000000000000000000000000004D
:102FF000075C143326A6A13C70B504462DED028B68
:103000004D1E00EBC500B0EE408AF0EE608A90EDF8
:10301000000B35F0060017D053EC182B51EC100BB9
:10302000FDF7C7F941EC100B6D1E04EBC50090EDE8
:10303000001B51EC100B53EC112BFDF713F941EC75
:10304000100B35F00600E7D1022D36D0042D1CD030
:10305000062D1CBFBDEC028B70BD53EC182B51EC40
:10306000100BFDF7A6F994ED0A1B53EC112BFDF79D
:10307000F9F853EC182BFDF79CF994ED081B53EC71
:10308000112BFDF7EFF841EC100B53EC182B51EC22
:10309000100BFDF78EF994ED061B53EC112BFDF789
:1030A000E1F853EC182BFDF784F994ED040B53EC85
:1030B000102BFDF7D7F841EC100B53EC182B51EC0B
:1030C000100BFDF776F994ED021B53EC112BFDF775
:1030D000C9F853EC182BFDF76CF994ED001B53EC79
:1030E000112BFDF7BFF8BDEC028B41EC100B70BD4E
:1030F00010B553EC102B51EC100BFDF7B3F841EC6D
:10310000100B10BD10B553EC112B51EC100BFDF74B
:10311000A9F841EC100B10BD9FED050B10B553EC59
:10312000102B51EC100BFDF7B6F941EC100B10BD54
:1031300000000000000000009FED050B10B553ECEF
:10314000102B51EC100BFDF734F941EC100B10BDB6
:10315000000000000000001002E008C8121F08C1B3
:10316000002AFAD170477047002001E001C1121F08
:10317000002AFBD170470000014908607047000039
:10318000300200202DE9FF4F8DB00F460546002686
:1031900006E025280BD0DDE90F1290476D1C761C48
:1031A00028780028F5D111B03046BDE8F08F002412
:1031B000A246A1460122E94900E0044315F8013F77
:1031C000203B02FA03F00842F7D128782A2810D0D1
:1031D0006FF02F022878A0F13001092914D80AEBEA
:1031E0008A0102EB410144F0020400EB010A6D1C6C
:1031F000F0E701CF5FEA000A03D544F40054CAF1B6
:10320000000A44F002046D1C28782E2817D115F806
:10321000010F44F004042A280ED06FF02F02287802
:10322000A0F1300109290AD809EB890102EB41011B
:1032300000EB01096D1CF2E757F8049B6D1C287820
:103240006C280FD006DC4C2817D068280DD06A28CF
:1032500014D104E0742810D07A280FD10DE044F482
:1032600000140AE044F4801401E044F44014697846
:10327000814202D104F580146D1C6D1C28786E28E3
:103280001ED00CDC632830D004DC00288BD05828FA
:1032900011D19FE0642867D069280CD164E07328BD
:1032A0002DD004DC6F2872D0702804D194E07528EA
:1032B0006ED078286DD0DDE90F129047761C4BE177
:1032C000C4F30250022806D0032809D0042801CFF5
:1032D00009D0066040E101CFF117C0E900613BE190
:1032E00001CF068038E1067036E117F8040B8DF83F
:1032F000000000208DF80100EB46012003E057F8A4
:1033000004BB4FF0FF3061074FF0000102D40DE025
:1033100008F10101884649450FDA8045F8DB1BF8C2
:1033200008100029F4D108E008F101018846814223
:10333000FADB1BF808100029F6D1DDE90F23AAEB10
:1033400008008146214600F031F9304400EB0806C0
:1033500004E0DDE90F121BF8010B9047B8F10108FA
:10336000F7D221464846F2E00A21C4F302524FF058
:10337000000B0891022A04D001CFC117032A09D0FB
:103380000AE0FF1D27F00707F7E8020108E02CE03C
:103390001EE01FE000B2C117042A01D140B2C117DC
:1033A000021E71F1000206DA0023D0EB030063EB8A
:1033B00001012D2202E0220504D52B228DF82420C4
:1033C000012203E0E20701D02022F7E7904653E014
:1033D0000A210BE0102109E010214FF0000B44F00E
:1033E00004044FF00809089103E008214FF0000B96
:1033F0000891C4F30252022A04D001CF0021032A0B
:1034000006D006E0FF1D27F00707F7E8020103E0FA
:1034100080B2042A00D1C0B24FF0000822072BD599
:103420002A78702A07D0DDF820C08CF0100C5CEAF6
:103430000B0C05D00EE040228DF82420012208E07C
:1034400050EA010306D030238DF824308DF8252072
:1034500002229046089B83F0080353EA0B030BD12A
:1034600050EA010201D1620706D530228DF82420EE
:103470004FF00108A9F101092A78582A04D038A28E
:103480000B9208AA0A920BE03AA2F9E75B46089A67
:10349000FDF7B8F80B9B9B5C0A9A521E0A921370B8
:1034A00050EA0102F2D10A98ADEB000000F1200BC6
:1034B000600702D524F4803401E04FF00109D945BA
:1034C00002DDA9EB0B0000E0002000EB0B01414402
:1034D0000890AAEB010AE00306D4DDE90F23214698
:1034E000504600F063F806444FF0000908E009A9CF
:1034F00011F80900DDE90F12904709F10109761C66
:10350000C145F4DBE0030CD5DDE90F23214650462D
:1035100000F04CF8064404E0DDE90F12302090473B
:10352000761C0899481E08900029F5DC08E00A98E6
:103530000A990078491C0A91DDE90F129047761C20
:10354000BBF10001ABF1010BF1DC21465046DDE996
:103550000F2300F019F806446D1C21E6092801002C
:1035600030313233343536373839616263646566F9
:1035700000000000303132333435363738394142BB
:1035800043444546000000002DE9F0410446002573
:103590001E461746880404D405E039462020B0476B
:1035A0006D1C641EF9D52846BDE8F0812DE9F04177
:1035B000044600251E469046C80301D5302700E08A
:1035C0002027880404D505E041463846B0476D1CE5
:1035D000641EF9D52846BDE8F0810A68531C0B60CB
:1035E00010707047F0B52DED028B83B006460F4684
:1035F0000025684600F058FF002447E056F82410E4
:1036000057F82420881A002801DB014600E04142D7
:1036100000EE101AB8EEC00ADFED200A80EE208A14
:10362000684600EB840090ED000AB5EEC00AF1EEAA
:1036300010FA18D0684600EB8400D0ED000A88EE3E
:10364000200AF7EE000A70EE608AB0EEE80A14482D
:10365000D0ED090AB4EEE00AF1EE10FA15DD012012
:10366000A040054311E00E4890ED070AB4EEC80AE9
:10367000F1EE10FA06DC90ED080AB4EEC80AF1EE9D
:1036800010FA02D20120A0400543641C032CB5DBD4
:10369000284603B0BDEC028BF0BD0000000080475F
:1036A000E88B000810B541EC100BFFF739FA51EC2C
:1036B000100B10BD10B502460023002003E0145C7F
:1036C0006340441CE0B28842F9DB184610BD00009C
:1036D00010B5104C2488041B22B20F4C24880C1BFC
:1036E00023B20C4C20800C4C218002EB820464003D
:1036F00000EE104AB8EEC00A084C84ED000A03EB55
:103700008304640000EE104AB8EEC00A044C84ED55
:10371000000A10BD50000020520000204800002088
:103720004C0000202DE9F0410446E07800F0C0068E
:10373000E07800F03F05607800F0010098B1EF10EC
:103740002846E91705EB5171C910A5EBC101491CC9
:1037500001F0FF080B48006820B10A4841460268A2
:103760003846904700BF607800F0080030B1054847
:10377000406818B1B011034A516888470020BDE87D
:10378000F0810000BC02002010B504466FF0040078
:10379000FEF7BAFAE11704EB5171C1F3C701074A0A
:1037A00011701046007800EB4001C1EBC0104FF6DD
:1037B000FF7101EAC0000249088010BD140000201A
:1037C0001600002070B504464FF4077094FBF0F02B
:1037D000C6B24FF4077094FBF0F100FB114085B2C4
:1037E00005E04FF4077000F02FF8701EC6B2002EEF
:1037F000F7D115B1284600F027F870BD0146114AEF
:1038000012784A434FF0E0235A6100229A611A4627
:10381000126942F001021A6100BF4FF0E022106904
:1038200000F001021AB100F48032002AF5D04FF006
:10383000E022126922F001024FF0E0231A61002217
:103840009A617047140000200146114A12884A43C9
:103850004FF0E0235A6100229A611A46126942F041
:1038600001021A6100BF4FF0E022106900F001026E
:103870001AB100F48032002AF5D04FF0E02212692C
:1038800022F001024FF0E0231A6100229A61704792
:103890001600002038B5044664B120208DF80000E1
:1038A00028208DF8010030208DF8020038208DF896
:1038B000030004E0A32204216846FCF7B4FC6A4636
:1038C000042140F69E2002F0B5FE02F09FFA38BDBA
:1038D0003EB5044602208DF80000CA208DF8010094
:1038E000E3208DF8020009208DF803006A460421C8
:1038F000682002F09FFEA3208DF8000004F0400035
:1039000048B1C0208DF80100C8208DF80200C22007
:103910008DF8030006E0A3208DF801008DF8020069
:103920008DF8030004F4C07048B1C4208DF8040081
:10393000CC208DF80500C6208DF8060006E0A320F7
:103940008DF804008DF805008DF80600A3208DF891
:1039500007008DF808008DF809006A460A2140F634
:10396000A72002F067FE04F0030018B120208DF8B4
:10397000000002E0D8208DF800006A46012140F6E0
:10398000B62002F057FE04F0200018B1012000F02C
:10399000ADF802E0002000F0A9F804F4C07008B30C
:1039A00004F4807060B1B2208DF800008B208DF897
:1039B0000100B6208DF802009B208DF803000BE07B
:1039C000B0208DF8000080208DF80100B4208DF823
:1039D000020090208DF803006A46042140F6A220E0
:1039E00002F028FE04F0010020B3F8208DF800005A
:1039F0006A4601214FF40B6002F01CFEFA210720F9
:103A000000F02CFC072000F0F3FB012000F013FC79
:103A1000642000F003FD4FF4FA7000F012FDC8219D
:103A2000304800F0A3FB282000F0BCFB0A2000F087
:103A3000CCFB08E0D8208DF800006A4601214FF445
:103A40000B6002F0F7FD04F0020018B1D9208DF8E8
:103A5000000002E0D8208DF800006A46012140F203
:103A60003D7002F0E7FD04F0040018B1012000F001
:103A700069F802E0002000F065F804F0100018B1C9
:103A80000120FFF707FF02E00020FFF703FF44F0EB
:103A900008001549488102F0B9F9002012498873DD
:103AA00004F0400018B10846807B801D887304F440
:103AB000C07020B10C48807B801D0B49887304F0D6
:103AC000140020B10848807B10300749887304F047
:103AD000030020B10448807B001D03498873002047
:103AE0003EBD000009E3CA02BC0200203EB5044608
:103AF0006CB10EA1D1E900208968CDE900200291C6
:103B00006A4609214FF4976002F094FD3EBD0AA277
:103B1000D2E900109268CDE9010200916A460921BC
:103B20004FF4976002F086FDF0E70000B8AAB38D6D
:103B3000B4980D355D000000B8AAAAAAB088C3C524
:103B4000C700000038B5044664B1C0208DF80000FD
:103B5000C2208DF80100C4208DF80200C6208DF827
:103B6000030004E08B2204216846FCF75CFB6A46F4
:103B7000042140F6982002F05DFD02F047F938BDBF
:103B800010B5C8234FF48062024940F6F63001F0C8
:103B9000D1FF10BD108C00082DE9F04F8DB0074605
:103BA000884615469946DDE9166B002400203080D2
:103BB0006B49887B5A4605A902F088F818B1601E47
:103BC0000DB0BDE8F08F6648807A00F01400002840
:103BD00067D09DF8140000069DF8151040EA0140DA
:103BE0009DF8161040EA01209DF817100843286040
:103BF0009DF8180000069DF8191040EA01409DF854
:103C00001A1040EA01209DF81B10084368609DF8D7
:103C10001C0000069DF81D1040EA01409DF81E1092
:103C200040EA01209DF81F100843A8609DF820007D
:103C300000069DF8211040EA01409DF8221040EA5C
:103C400001209DF823100843E86004F11000C4B27D
:103C5000286800140190686800140290A868001495
:103C60000390E8680014049001984043029901FB16
:103C70000100039901FB0100049901FB010ABAF15B
:103C8000706F02DBBAF1885F05DD02F0BFF800203B
:103C90003080401E94E7B6F9000040F48070308018
:103CA00000BF2F48807A00F0400020B305A9601CB7
:103CB000085C095D40EA012000B2A8F8000005A9EF
:103CC000E01C095C05AAA01C105C41EA002000B2BF
:103CD000A8F8020005A9601D095C201D105C41EADE
:103CE000002000B2A8F80400A01DC4B2B6F900007C
:103CF00040F0080030801A48408900F4C07008B3D2
:103D000005A9601C085C095D40EA012000B238800A
:103D100005A9E01C095C05AAA01C105C41EA002072
:103D200000B2788005A9601D095C201D105C41EA85
:103D3000002000B2B880A01DC4B2B6F9000040F067
:103D4000700030800648807A00F0030018B105A9A1
:103D50000819FFF7E7FC484601F0E2FA00202FE7D8
:103D6000BC02002070B588B0064601A801F02EFD07
:103D7000BDF804000021C90341EA5045C40344488A
:103D8000007A00F0030056F8200005904048007AC1
:103D900000F0040010B10598404205903C48007ABC
:103DA000C0F3C10056F8200006903948007A00F0B0
:103DB000200010B10698404206903548007AC0F3C2
:103DC000811056F8200007903148008900F4807077
:103DD00010B10798404207900598C117A0FB042333
:103DE00001FB043100FB0510810041EA927005904F
:103DF0000698C117A0FB042301FB043100FB05104A
:103E0000810041EA927006900798C117A0FB042335
:103E100001FB043100FB0510810041EA927007901C
:103E20000598000E8DF808000598000C8DF8090023
:103E30000598000A8DF80A000598C0B28DF80B00AD
:103E40000698000E8DF80C000698000C8DF80D00F9
:103E50000698000A8DF80E000698C0B28DF80F0083
:103E60000798000E8DF810000798000C8DF81100CF
:103E70000798000A8DF812000798C0B28DF8130059
:103E800002AA0C214FF4257002F0D4FB08B070BDDB
:103E9000BC02002030B585B0044616A207CA02ABAA
:103EA00007C3C82C03DD4FF0FF3005B030BDC8207C
:103EB00090FBF4F0401E85B2280A8DF80000E8B2AD
:103EC0008DF801006A46022140F2162002F0B2FB92
:103ED00010B14FF0FF30E8E702AA0C2140F6C120F4
:103EE00002F0A8FB10B14FF0FF30DEE704488481F8
:103EF0000020DAE7FEF2ABC4AAF1DFDFBBAFDFDF01
:103F0000BC0200201FB504464848007A00F00300B8
:103F100054F8200001904548007A00F0040010B1E8
:103F20000198404201904148007AC0F3C10054F822
:103F3000200002903D48007A00F0200010B1029865
:103F4000404202903948007AC0F3811054F82000B2
:103F500003903648008900F4807010B10398404205
:103F600003903349019880FB0101800F40EA8100F2
:103F700001902F49029880FB0110820042EA917063
:103F800002902B49039880FB0110820042EA917055
:103F900003900198000E8DF800000198000C8DF838
:103FA00001000198000A8DF802000198C0B28DF856
:103FB00003006A4604214FF4747002F03BFB18B111
:103FC0004FF0FF3004B010BD0298000E8DF80000D5
:103FD0000298000C8DF801000298000A8DF802008A
:103FE0000298C0B28DF803006A4604214FF4757040
:103FF00002F020FB10B14FF0FF30E3E70398000E12
:104000008DF800000398000C8DF801000398000A59
:104010008DF802000398C0B28DF803006A460421AF
:104020004FF4767002F006FBCCE70000BC020020E3
:1040300009E3CA0210B586B0044647A000680390A1
:1040400046A00068029046A00068019045A0006864
:10405000009004F0030003A9085C8DF8140003A885
:10406000C4F3C101405C8DF8150003A8C4F38111AD
:10407000405C8DF8160004F0030002A9085C8DF87E
:10408000100002A8C4F3C101405C8DF8110002A821
:10409000C4F38111405C8DF8120005AA032140F29F
:1040A000264002F0C7FA18B14FF0FF3006B010BD3D
:1040B00004AA032140F22A4002F0BCFA10B14FF0EA
:1040C000FF30F3E7019805900098049004F0040095
:1040D00058B19DF8140040F001008DF814009DF8CF
:1040E000100040F001008DF8100004F0200058B1DD
:1040F0009DF8150040F001008DF815009DF81100A5
:1041000040F001008DF8110004F4807058B19DF862
:10411000160040F001008DF816009DF8120040F0E6
:1041200001008DF8120005AA03214FF4886002F007
:1041300081FA10B14FF0FF30B8E704AA032140F232
:10414000314002F077FA10B14FF0FF30AEE7064889
:1041500004810020AAE700004CCD6C000CC92C00A3
:104160003656760026466600BC020020F8B50546A5
:104170000E464FF47A7095FBF0F000FB06F4200E2B
:104180008DF80000200C8DF80100200A8DF8020047
:10419000E0B28DF803006A4604214FF4AE7002F0DD
:1041A00049FAF8BD38B50446052094FBF0F084B216
:1041B00020128DF80000E0B28DF801006A4602215D
:1041C0004FF4AD7002F036FA38BD38B5044605201C
:1041D00094FBF0F084B220128DF80000E0B28DF86C
:1041E00001006A4602214FF4AC7002F023FA38BD98
:1041F00038B504460020009004F0010020B19DF87D
:10420000000040F03000009004F0020020B19DF862
:10421000000040F00C00009004F0040020B19DF874
:10422000000040F0030000906A4601214FF4A470A2
:1042300002F000FA38BD38B50446012C01DA012439
:1042400002E0042C00DD0424601EC0B200906A4627
:10425000012140F24F1002F0EDF938BDF0B52DED1F
:10426000028B83B006460F4606F0070010B1B7F583
:10427000C86F05DD4FF0FF3003B0BDEC028BF0BD21
:1042800000EE107AB8EE400ADFED5B0A80EE208A7D
:1042900001A801F075FA9DF80400022806D0042850
:1042A00017D0082828D010284CD138E09FED530AA9
:1042B00028EE000ABCEEC00A10EE100A84B29FED90
:1042C000500A28EE000ABCEEC00A10EE100A85B2B1
:1042D0003BE09FED4C0A28EE000ABCEEC00A10EE4F
:1042E000100A84B29FED480A28EE000ABCEEC00A0C
:1042F00010EE100A85B228E09FED440A28EE000A6D
:10430000BCEEC00A10EE100A84B29FED410A28EEFE
:10431000000ABCEEC00A10EE100A85B215E09FED4F
:104320003D0A28EE000ABCEEC00A10EE100A84B264
:104330009FED390A28EE000ABCEEC00A10EE100A02
:1043400085B202E04FF0FF3096E700BF20128DF8F3
:104350000800E0B28DF8090028128DF80A00E8B2D2
:104360008DF80B0006F00100A0B102AA02214FF463
:10437000EA7002F05FF910B14FF0FF307CE70DF109
:104380000A0202214FF4927002F054F910B14FF07A
:10439000FF3071E706F00200A0B102AA02214FF43B
:1043A000EC7002F047F910B14FF0FF3064E70DF107
:1043B0000A0202214FF4947002F03CF910B14FF060
:1043C000FF3059E706F00400A0B102AA02214FF421
:1043D000EE7002F02FF910B14FF0FF304CE70DF105
:1043E0000A0202214FF4967002F024F910B14FF046
:1043F000FF3041E700203FE70000484300008046CF
:1044000000004046000000460000C0450000804516
:1044100000004045000000450000C04438B5044697
:10442000052094FBF0F085B228128DF80000E8B268
:104430008DF801006A4602214FF4EF7002F0FAF89D
:1044400038BD38B50446052094FBF0F085B228123B
:104450008DF80000E8B28DF801006A4602214FF4A1
:10446000ED7002F0E7F838BD82B0CDE9000121F02F
:10447000004001909DED000B02B051EC100B704715
:1044800000BF054A128802F04002002AF9D0C2B2E9
:10449000014B9A80704700000010014001480068FD
:1044A00070470000200000207CB505462E49496871
:1044B000087801AB04220D21FDF724F808B107208C
:1044C0007CBD9DF80700C0F301109DF8041001F0B9
:1044D000E00140EAE1008DF800009DF80700C0F31C
:1044E00081009DF8051001F0E00140EAE1008DF83F
:1044F00001009DF8070000F003009DF8061001F090
:10450000E00140EAE1008DF80200002427E01DF8F8
:10451000040030B99FED150A05EB840080ED000A18
:104520001BE09FED130A05EB840080ED000A0BE011
:1045300005EB840090ED000ADFED0E0A20EE200A64
:1045400005EB840080ED000A1DF80400401EC0B297
:104550000DF804000028EBD100BF601CC4B2032C8E
:10456000D5DB0020ACE70000F801002000000000CF
:104570007B14AE3E1D5A843F2DE9F04F87B00546AF
:104580000C46914601208DF8100000208DF8110096
:10459000FE4A1268917CFD4A5268107804AB0222F0
:1045A000FDF756F820B14FF0FF3007B0BDE8F08FAF
:1045B000C820FFF707F900208DF81000F34A1268B1
:1045C000D17BF24A5268107804AB0122FDF740F823
:1045D00010B14FF0FF30E8E7EC4A12685179EB4A2E
:1045E0005268107804AB0122FDF732F810B14FF099
:1045F000FF30DAE7E54A1268917CE44A52681078A5
:1046000004AB0122FDF724F810B14FF0FF30CCE7E6
:10461000DE4A1268D17DDD4A5268107804AB01226F
:10462000FDF716F810B14FF0FF30BEE7D74A126819
:104630001179D64A5268107804AB0122FDF708F8C8
:1046400010B14FF0FF30B0E70C208DF81000CF4ACA
:1046500012681179CD4A5268107804AB0122FCF738
:10466000F7FF10B14FF0FF309FE70F20FFF7AAF8D8
:10467000C648806A407A8DF81000C44A1268917862
:10468000C24A5268107804AB0122FCF7E1FF10B176
:104690004FF0FF3089E7BD48806A007A8DF810003E
:1046A000BA4A12685178B94A5268107804AB0122AC
:1046B000FCF7CEFF10B14FF0FF3076E7B9F1000FF5
:1046C00007D0B248806A807A40F0E0008DF8100090
:1046D00004E0AE48806A807A8DF81000AB4A126818
:1046E0009179AA4A5268107804AB0122FCF7B0FF16
:1046F00010B14FF0FF3058E7B9F1000F07D0A348D1
:10470000806AC07A40F0E0008DF8100003E0A04815
:10471000C07A8DF810009D4A1268D1799B4A526880
:10472000107804AB0122FCF793FF10B14FF0FF307B
:104730003BE7B9F1000F02D0C820FFF743F8402053
:104740008DF81000914A12681179904A52681078D9
:1047500004AB0122FCF77CFF10B14FF0FF3024E7DF
:1047600078208DF81000894A12685179874A52687A
:10477000107804AB0122FCF76BFF10B14FF0FF3053
:1047800013E783498889FFF71DF800208DF8100092
:104790007E4A126851797D4A5268107804AB012232
:1047A000FCF756FF10B14FF0FF30FEE6774A126873
:1047B000917A764A5268107804AB0222FCF7A2FE86
:1047C00010B14FF0FF30F0E69DF811009DF8101089
:1047D00040EA012B0C209BFBF0F0C6B20020A86041
:1047E00068602860A06060602060824665E0674A7B
:1047F0001268D17A654A5268107804AB0C22FCF733
:1048000081FE10B14FF0FF30CFE69DF811009DF80A
:10481000101040EA012000B2ADF808009DF8130026
:104820009DF8121040EA012000B2ADF80A009DF890
:1048300015009DF8141040EA012000B2ADF80C00FC
:10484000BDF90810206808442060BDF90A106068AE
:1048500008446060BDF90C10A0680844A0609DF891
:1048600017009DF8161040EA012000B2ADF80000D4
:104870009DF819009DF8181040EA012000B2ADF82B
:1048800002009DF81B009DF81A1040EA012000B2BA
:10489000ADF80400BDF90010286808442860BDF98F
:1048A0000210686808446860BDF90410A8680844EC
:1048B000A8600AF1010000F0FF0AB24597DB344816
:1048C000D0F800C02868C117090441EA1041070464
:1048D000624600233846FBF775FC32460023CDE9DB
:1048E0000201FBF76FFC28602948D0F800C0686817
:1048F000C117090441EA1041070462460023384603
:10490000FBF760FC32460023CDE90201FBF75AFCBD
:1049100068601F48D0F800C0A868C117090441EAC0
:1049200010410704624600233846FBF74BFC324631
:104930000023CDE90201FBF745FCA8601448D0F83C
:1049400004C02068C117090441EA10410704624607
:1049500000233846FBF736FC32460023CDE902013E
:10496000FBF730FC20600A48D0F804C06068C1172B
:10497000090441EA10410704624600233846FBF768
:1049800021FC32460023CDE9020103E0F8010020BA
:10499000E88B0008FBF716FC60601148D0F804C0F3
:1049A000A068C117090441EA1041070462460023C8
:1049B0003846FBF707FC32460023CDE90201FBF73E
:1049C00001FCA060A068002804DDA068A0F580308C
:1049D000A06003E0A06800F58030A0600020E4E55E
:1049E000E88B0008F0B52DED048B81B006460F462C
:1049F00000253E49496808786B4603220D21FCF7E3
:104A000081FD20B1072001B0BDEC048BF0BD9DF805
:104A1000000000F01F008DF800009DF8010000F07C
:104A20001F008DF801009DF8020000F01F008DF8B6
:104A30000200002455E056F8241057F82420881A64
:104A4000002801DB014600E0414200EE101AB8EEFA
:104A5000C00ADFED270A80EE208A1DF8040068B343
:104A6000244890ED000AB8EE400ADFED230A80EEFC
:104A7000801AF0EE418A05E09FED200A28EE800AB8
:104A8000F0EE408A1DF80400401EC0B20DF804008C
:104A90000028F1D188EE280AF7EE000A30EE609A7D
:104AA000B0EEC90A1348D0ED060AB4EEE00AF1EE02
:104AB00010FA15DD0120A040054311E00D4890EDEE
:104AC000040AB4EEC80AF1EE10FA06DC90ED050A0D
:104AD000B4EEC80AF1EE10FA02D20120A04005435C
:104AE000641C032CA7DB28468DE70000F80100209A
:104AF00000008047E88B000800B04C4554E3853F38
:104B000010B50446204600F00FF80346E01C00F004
:104B10000BF843EAC00083B2A01D00F005F843EA99
:104B2000801083B2184610BD014691F90020002A7A
:104B300001DD00201EE091F90020002A01DA0420A6
:104B400018E091F90120002A01DD012012E091F91D
:104B50000120002A01DA05200CE091F90220002A48
:104B600001DD022006E091F90220002A01DA062088
:104B700000E007207047000028480078012813D182
:104B80002748007802280FD02648006890ED000AD8
:104B90002548D0ED000A30EE600A2248006880ED1A
:104BA000000A0120214908701C480078012818D10A
:104BB0001B480078022814D11B4890ED000ADFED55
:104BC0001C0AB4EEE00AF1EE10FA07DB90ED000AE1
:104BD000F2EE040A80EE201A80ED001A012013493B
:104BE000087014481449097800EB4110406990EDB1
:104BF000000ADFED0F0AB4EEE00AF1EE10FA0CD273
:104C00009FED0B0A0B480C49097800EB41104069F5
:104C100080ED000A0120054908707047550000200A
:104C20005600002070000020740000205700002073
:104C30000AD7233C5C020020580000202848007856
:104C4000012813D12748007802280FD02648006891
:104C500090ED000A2548D0ED000A30EE200A2248E7
:104C6000006880ED000A0120214908701C48007886
:104C7000012818D11B480078022814D11B4890ED58
:104C8000000ADFED1C0AB4EEE00AF1EE10FA07D2DA
:104C900090ED000AF2EE040A20EE200A80ED000AF0
:104CA00001201349087014481449097800EB411099
:104CB000406990ED000ADFED120AB4EEE00AF1EE71
:104CC00010FA0CDD9FED0E0A0B480C49097800EB39
:104CD0004110406980ED000A0120054908707047C5
:104CE00055000020560000207000002074000020B5
:104CF0005700002000007A445C0200205800002089
:104D00000000C84210B52F480078022803DB2D4868
:104D10000078072800DD10BD2B48007838B100234B
:104D20002AA2284801781846FCF733FD06E0002344
:104D300027A2244801781846FCF72BFD214800786B
:104D4000801E06283AD2DFE800F00307111B252F4A
:104D500020482149086031E020482149097800EBCA
:104D60004110C06900681C49086027E01B481C49C5
:104D7000097800EB4110C0694068174908601DE0E0
:104D800016481749097800EB4110C069806812493C
:104D9000086013E011481249097800EB4110C0691E
:104DA000C0680D49086009E00C480D49097800EB1E
:104DB0004110C06900690849086000BF00BF00BF1A
:104DC000A9E7000056000020550000202600000042
:104DD0003E00000074000020700000205C020020F3
:104DE0005800002010B5002465E0344890ED000A1A
:104DF000B5EEC00AF1EE10FA07D090ED000AF7EE1A
:104E0000000A30EE600A80ED000A04EB84002C49B1
:104E100001EB8000407CA0B114B1012C10D107E05F
:104E2000FDF7C2FB4FF400512648FBF7A5FE07E053
:104E3000FFF704FF4FF400512248FBF79BFE00BF31
:104E400000BF04EB84001E4901EB8000807CA0B110
:104E500014B1012C10D109E001201B4908701B4935
:104E6000087041031748FBF787FE05E0FDF7C8FB14
:104E700001201649087000BF00BF04EB84001049F0
:104E800001EB8000C07CA0B114B1012C10D107E06F
:104E9000FDF7A0FB4FF400510A48FBF76DFE07E059
:104EA000FFF76AFE4FF400510648FBF763FE00BFB0
:104EB00000BF601CC4B2022C97DB10BD780000203C
:104EC0003402002000080240550000205700002056
:104ED00010B5002473E1BD4830F8240081B2BC480D
:104EE000FBF73FFE08B9012000E0002004EB84013D
:104EF000B84A02F8210004EB8400114611F82000A2
:104F000004EB840102EB8101487004EB840011463C
:104F100011F8200098B904EB840001EB8000007CBC
:104F200001280CD004EB840001EB8000007C0528F4
:104F300005D0002004EB840102EB8101486004EB02
:104F40008400A44911F8200098B104EB840001EB1F
:104F50008000407868B104EB840001EB8000406879
:104F60009D490978084404EB84019A4A02EB8101C7
:104F7000486004EB8400974901EB8000007C022824
:104F800006D004EB840001EB8000007C03280FD1E5
:104F900004EB84008F4901EB800080688E4909781A
:104FA000084404EB84018B4A02EB8101886006E02F
:104FB000002004EB8401874A02EB8101886004EB46
:104FC0008400844901EB8000007C072827D2DFE8B9
:104FD00000F00427618CBDD1E500002004EB8401C2
:104FE0007C4A02EB8101487404EB840102EB8101ED
:104FF000887404EB840102EB8101C87404EB840122
:1050000002EB8101C86004EB8400114611F8200016
:1050100028B1012004EB840102EB81010874CBE08C
:1050200004EB84006B4901EB80004068B0F5967F8B
:1050300007D9052004EB8401664A02EB810108745C
:1050400027E004EB8400634911F8200008BB04EB5F
:10505000840001EB800040680A2813D9022004EB89
:1050600084015C4A02EB8101087404EB8400114660
:1050700001EB8000C068401C04EB840102EB81015D
:10508000C86006E0002004EB8401524A02EB810173
:10509000087491E004EB84004E4901EB80008068C5
:1050A00096281AD204EB840001EB800040680A289D
:1050B00012D9062004EB8401464A02EB81010874F0
:1050C00004EB8400114601EB8000C068401C04EB37
:1050D000840102EB8101C8606EE0042004EB8401CE
:1050E0003C4A02EB8101087466E004EB8400394914
:1050F00001EB8000806896281AD204EB840001EB53
:10510000800040680A2813D9062004EB8401314A44
:1051100002EB8101087404EB8400114601EB80006E
:10512000C068401C04EB840102EB8101C8600CE004
:10513000012004EB8401274A02EB8101C87400209E
:1051400004EB840102EB8101087435E0012004EBDB
:105150008401204A02EB8101487404EB840011466B
:1051600011F8200028B9002004EB840102EB810132
:10517000087421E004EB8400164911F8200060B99E
:10518000012004EB8401134A02EB810188740020A2
:1051900004EB840102EB810108740DE004EB840050
:1051A0000C4911F8200030B9032004EB8401094AAE
:1051B00002EB8101087400BF00BF601CC4B2022C66
:1051C000FFF689AEFFF70EFE10BD00003400002090
:1051D00000000240340200203C00002010B50320F3
:1051E0001C49087000202FE0002100EB80021A4BC0
:1051F00003F8221000EB800203EB8202517000EBF7
:10520000800203EB8202516000EB800203EB82021A
:10521000916000EB800203EB8202D16000EB800220
:1052200003EB8202117400EB800203EB82025174E3
:1052300000EB800203EB8202917400EB800203EB2F
:105240008202D174411CC8B20228CDDBFBF7F4FD09
:1052500010BD00003C0000203402002008B54FF4CF
:10526000A060FCF7B5FBFCF763FDA820FEF78CFA05
:10527000FCF7CEF8FBF77EFE4FF6FF7080231A4650
:10528000002100900846FBF733FEFBF743FBFBF7DA
:105290009FFBFCF70FFAFCF7E7FAFFF79FFF00F020
:1052A00041F81949484201F013FBFCF7D1F800EE30
:1052B000100AB8EE400A154880ED000A00F012FA14
:1052C0006420FEF77FFAFCF76BFE1420FCF7C0FEAB
:1052D0000A20FCF73DFF4FF4FA70FEF773FA12E074
:1052E000FFF7DCF800EE100AB8EE400A084880ED3F
:1052F000000A084A0849094800F0E8F8FCF7E0F914
:105300006420FEF75FFAEBE718FCFFFF8000002047
:105310007C0000208C0000208800002084000020F9
:105320007047000000B58FB000200D900E900A90DD
:105330000B900C90142105A8FAF77CFF0020019037
:1053400002900390049001211020FCF78FFB4FF492
:10535000AB400D9001208DF8380003208DF8390006
:1053600000208DF83A008DF83B000DA93848FBF776
:105370008DFB4FF4A3413648FBF7FCFB4FF48061F3
:105380003348FBF7F9FB01210420FCF76FFBC02039
:105390000D9002208DF8380003208DF83900002090
:1053A0008DF83A008DF83B000DA92A48FBF76EFBFB
:1053B000032206212748FBF7B1FB032207212548DA
:1053C000FBF7ACFB01210220FCF770FB0120ADF8DC
:1053D000280041F287300B900020ADF82A00ADF88C
:1053E00030000AA91C48FDF793F86020ADF81400BE
:1053F0000120ADF8160000200790ADF8200005A9A7
:105400001548FCF7AFFF08211348FCF7E9FF05A991
:105410001148FCF7EFFF08210F48FDF73DF8112078
:10542000ADF80A000020ADF80C004FF48040ADF854
:10543000100001A90848FCF7E9FE01210648FCF725
:1054400007FF01210448FCF7F7FE0FB000BD000084
:1054500000100240000802400004014070B50446FC
:10546000002624F00104184890F8240008B1002018
:1054700070BD1548807A10B94FF0FF30F8E7124838
:10548000057C807A2040104908740846007CA042C0
:1054900002D04FF0FF3600E0002614B90A48007D24
:1054A00018B1012001F094F902E0002001F090F918
:1054B0003CB100F0ABFC20B1034805744FF0FF3065
:1054C000D6E73046D4E70000F801002070B52DED96
:1054D0000C8B8EB004460D461646B7EE000AF0EE71
:1054E000409A9FED7C0AB0EE408A9FED7A0AF0EE7A
:1054F000408A9FED780AB0EE409A07A808A90DAB44
:1055000003AACDE9001009A90BA8FEF745FB20B1BD
:1055100001200EB0BDEC0C8B70BDBDF8200000F476
:10552000807000287ED09DED030AB8EEC00ADFED42
:105530006A0A80EE201AF0EE419A9DED040AB8EE58
:10554000C00ADFED650A80EE201AB0EE418A9DEDBB
:10555000050AB8EEC00ADFED600A80EE201AF0EE10
:10556000418A9DED060AB8EEC00ADFED5B0A80EEC7
:10557000201AB0EE419AB8EE000A28EE000A20EE9A
:10558000090AF0EE000A69EEA00A00EEA80A10EE81
:10559000101A0846FAF7EEFF41EC1C0BB0EE4C0A6D
:1055A000F0EE6C0AFDF70CF9B0EE40BAF0EE60BA1E
:1055B0009FED4A0B53EC102B51EC1B0BFAF7F9FE45
:1055C00041EC1A0BFBF702F82060B8EE000A28EE57
:1055D000000A20EE080AF0EE000A68EEA00A00EECB
:1055E000E80AF7EE000A30EE200A10EE101A08461C
:1055F000FAF7C0FF41EC1C0BB0EE000A28EE800A5F
:1056000020EE090AF0EE000A69EEA00A00EE880A10
:1056100010EE101A0846FAF7ADFF41EC1D0BB0EE84
:105620004C1A00E052E0F0EE6C1AB0EE4D0AF0EECB
:105630006D0AFDF7E1FBB0EE40BAF0EE60BA9FED07
:10564000270B53EC102B51EC1B0BFAF7B2FE41EC7D
:105650001A0BFAF7BBFF286029EEA90A08EE080A20
:1056600008EEE80A09EE490A10EE101A0846FAF7A1
:1056700081FF41EC1C0B28EE280A09EE890AF0EEA6
:10568000000A20EE200A10EE101A0846FAF772FF00
:1056900041EC1D0BB0EE4C1AF0EE6C1AB0EE4D0A58
:1056A000F0EE6D0AFDF7A8FBB0EE40BAF0EE60BA7E
:1056B0009FED0A0B53EC102B51EC1B0BFAF779FE04
:1056C00041EC1A0BFAF782FF306001E0022020E77C
:1056D00000201EE7000000000000804E666666663F
:1056E00066A64C4070B50024FBF772FA00F02AF968
:1056F000002840D1782000F035FFC4B20CB1012061
:1057000070BD7820FFF7AAFEC4B20CB10220F7E703
:10571000642000F0D9FEC4B20CB10320F0E7FEF71C
:105720002FFAC4B20CB10420EAE71448FFF7E8F9F5
:105730000546FEF77FFCC4B20CB10520E0E740F25D
:105740007310FEF7C5F8C4B20CB10620D8E7642088
:10575000FEF7A0FBC4B20CB10720D1E700F0B8FF00
:1057600004460CB10820CBE7012000F0A9FDC4B22B
:105770000CB10920C4E70020C2E700002402002089
:1057800001461148407A30B1012807D0022808D0DC
:1057900003280CD108E0022008700BE004200870F8
:1057A00008E00820087005E01020087002E04FF0C3
:1057B000FF30704700BF0448C07C18B1087840062D
:1057C000000E08700020F4E7F8010020014613489D
:1057D000407A30B1012808D002280AD0032810D11D
:1057E0000BE04FF4804008800EE041F69C7008808A
:1057F0000AE04FF48050088006E04FF40060088013
:1058000002E04FF0FF30704700BF0448C07C10B189
:105810000888401008800020F5E70000F80100200B
:1058200001460248007C087000207047F801002003
:1058300001460F48007A30B1012807D0022809D06C
:1058400003280FD10AE0FA2008800EE04FF4FA7026
:1058500008800AE04FF47A70088006E04FF4FA609E
:10586000088002E00020088000BF00BF00207047D1
:10587000F801002001461248007A30B1012809D011
:1058800002280CD0032814D10EE09FED0E0A81ED02
:10589000000A11E09FED0C0A81ED000A0CE09FED7B
:1058A0000B0A81ED000A07E09FED090A81ED000A6D
:1058B00002E04FF0FF30704700BF0020FBE7000020
:1058C000F801002000000343000083423333034209
:1058D0003333834101461248C07A082817D2DFE8E3
:1058E00000F01704070A0D101318BC20088013E0FD
:1058F0006220088010E02A2008800DE01420088033
:105900000AE00A20088007E00520088004E000BFC4
:1059100000BF0020088000BF00BF002070470000CB
:10592000F80100200146064890F8240010B14FF01D
:10593000FF3070470248C08908800020F9E7000066
:10594000F80100201CB580208DF80000654A12681F
:10595000917C644A526810786B460122FBF778FE0E
:1059600010B14FF0FF301CBD6420FDF72BFF00206D
:105970008DF800005B4A1268917C5A4A5268107890
:105980006B460122FBF764FE10B14FF0FF30EAE7EF
:10599000544A1268917D534A526810786B46062229
:1059A000FBF7B0FD10B14FF0FF30DCE79DF80500CC
:1059B000C007400F9DF8031001F0010140EA4100CB
:1059C0009DF8011001F0010140EA010494B1012C9D
:1059D00003D101214348C17431E0022C03D10021DD
:1059E0004048C1742BE021463FA0FCF7ABFE4FF0CE
:1059F000FF30B8E73B4A1268D1783A4A52681078CB
:105A00006B460122FBF77EFD10B14FF0FF30AAE795
:105A10009DF8000000F00F042CB93D48FCF792FE01
:105A20004FF0FF309FE7042C06D13AA0FCF78AFE26
:105A300001212C48C17402E000212A48C174FF21D1
:105A400028488172FF2027490872FF2125484172AA
:105A5000C1724FF6FF71C181FF2101748174012170
:105A6000017380F82210002180F823104175017520
:105A70001630016041608160163880F8241080F88B
:105A80002510C1844FF4FA6000F062FC10B14FF0B1
:105A9000FF3068E7022000F02BFB10B14FF0FF3021
:105AA00061E72A2000F0CEFC10B14FF0FF305AE73A
:105AB000322000F009FD10B14FF0FF3053E7002015
:105AC000FFF7CCFC10B14FF0FF304CE7002000F0A6
:105AD00051FB10B14FF0FF3045E7002000F042FDD0
